{"abi":[{"type":"constructor","inputs":[],"stateMutability":"nonpayable"},{"type":"function","name":"calculateSignalStrength","inputs":[{"name":"frequency","type":"uint256","internalType":"uint256"}],"outputs":[{"name":"","type":"uint256","internalType":"uint256"}],"stateMutability":"view"},{"type":"function","name":"frequencyToStation","inputs":[{"name":"","type":"uint256","internalType":"uint256"}],"outputs":[{"name":"","type":"address","internalType":"address"}],"stateMutability":"view"},{"type":"function","name":"getAllStations","inputs":[],"outputs":[{"name":"","type":"address[]","internalType":"address[]"}],"stateMutability":"view"},{"type":"function","name":"getListenerCount","inputs":[{"name":"frequency","type":"uint256","internalType":"uint256"}],"outputs":[{"name":"","type":"uint256","internalType":"uint256"}],"stateMutability":"view"},{"type":"function","name":"getListenerStations","inputs":[{"name":"listener","type":"address","internalType":"address"}],"outputs":[{"name":"","type":"uint256[]","internalType":"uint256[]"}],"stateMutability":"view"},{"type":"function","name":"getStationByFrequency","inputs":[{"name":"frequency","type":"uint256","internalType":"uint256"}],"outputs":[{"name":"","type":"address","internalType":"address"}],"stateMutability":"view"},{"type":"function","name":"getStationByIndex","inputs":[{"name":"index","type":"uint256","internalType":"uint256"}],"outputs":[{"name":"station","type":"address","internalType":"address"},{"name":"frequency","type":"uint256","internalType":"uint256"}],"stateMutability":"view"},{"type":"function","name":"getStationCount","inputs":[],"outputs":[{"name":"","type":"uint256","internalType":"uint256"}],"stateMutability":"view"},{"type":"function","name":"isTunedIn","inputs":[{"name":"listener","type":"address","internalType":"address"},{"name":"frequency","type":"uint256","internalType":"uint256"}],"outputs":[{"name":"","type":"bool","internalType":"bool"}],"stateMutability":"view"},{"type":"function","name":"lastSignalUpdate","inputs":[{"name":"","type":"uint256","internalType":"uint256"}],"outputs":[{"name":"","type":"uint256","internalType":"uint256"}],"stateMutability":"view"},{"type":"function","name":"listenerCounts","inputs":[{"name":"","type":"uint256","internalType":"uint256"}],"outputs":[{"name":"","type":"uint256","internalType":"uint256"}],"stateMutability":"view"},{"type":"function","name":"owner","inputs":[],"outputs":[{"name":"","type":"address","internalType":"address"}],"stateMutability":"view"},{"type":"function","name":"registerStation","inputs":[{"name":"station","type":"address","internalType":"address"},{"name":"frequency","type":"uint256","internalType":"uint256"}],"outputs":[],"stateMutability":"nonpayable"},{"type":"function","name":"renounceOwnership","inputs":[],"outputs":[],"stateMutability":"nonpayable"},{"type":"function","name":"signalStrengths","inputs":[{"name":"","type":"uint256","internalType":"uint256"}],"outputs":[{"name":"","type":"uint256","internalType":"uint256"}],"stateMutability":"view"},{"type":"function","name":"stationToFrequency","inputs":[{"name":"","type":"address","internalType":"address"}],"outputs":[{"name":"","type":"uint256","internalType":"uint256"}],"stateMutability":"view"},{"type":"function","name":"stations","inputs":[{"name":"","type":"uint256","internalType":"uint256"}],"outputs":[{"name":"","type":"address","internalType":"address"}],"stateMutability":"view"},{"type":"function","name":"transferOwnership","inputs":[{"name":"newOwner","type":"address","internalType":"address"}],"outputs":[],"stateMutability":"nonpayable"},{"type":"function","name":"tuneIn","inputs":[{"name":"frequency","type":"uint256","internalType":"uint256"}],"outputs":[],"stateMutability":"nonpayable"},{"type":"function","name":"tuneOut","inputs":[{"name":"frequency","type":"uint256","internalType":"uint256"}],"outputs":[],"stateMutability":"nonpayable"},{"type":"function","name":"updateSignalStrength","inputs":[{"name":"frequency","type":"uint256","internalType":"uint256"}],"outputs":[],"stateMutability":"nonpayable"},{"type":"event","name":"OwnershipTransferred","inputs":[{"name":"previousOwner","type":"address","indexed":true,"internalType":"address"},{"name":"newOwner","type":"address","indexed":true,"internalType":"address"}],"anonymous":false},{"type":"event","name":"SignalStrengthUpdated","inputs":[{"name":"frequency","type":"uint256","indexed":true,"internalType":"uint256"},{"name":"strength","type":"uint256","indexed":false,"internalType":"uint256"}],"anonymous":false},{"type":"event","name":"StationRegistered","inputs":[{"name":"station","type":"address","indexed":true,"internalType":"address"},{"name":"frequency","type":"uint256","indexed":true,"internalType":"uint256"}],"anonymous":false},{"type":"event","name":"TunedIn","inputs":[{"name":"listener","type":"address","indexed":true,"internalType":"address"},{"name":"frequency","type":"uint256","indexed":true,"internalType":"uint256"}],"anonymous":false},{"type":"event","name":"TunedOut","inputs":[{"name":"listener","type":"address","indexed":true,"internalType":"address"},{"name":"frequency","type":"uint256","indexed":true,"internalType":"uint256"}],"anonymous":false},{"type":"error","name":"AlreadyTunedIn","inputs":[{"name":"listener","type":"address","internalType":"address"},{"name":"frequency","type":"uint256","internalType":"uint256"}]},{"type":"error","name":"FrequencyAlreadyRegistered","inputs":[{"name":"frequency","type":"uint256","internalType":"uint256"}]},{"type":"error","name":"FrequencyNotRegistered","inputs":[{"name":"frequency","type":"uint256","internalType":"uint256"}]},{"type":"error","name":"InvalidFrequency","inputs":[]},{"type":"error","name":"InvalidStation","inputs":[]},{"type":"error","name":"NotTunedIn","inputs":[{"name":"listener","type":"address","internalType":"address"},{"name":"frequency","type":"uint256","internalType":"uint256"}]},{"type":"error","name":"OwnableInvalidOwner","inputs":[{"name":"owner","type":"address","internalType":"address"}]},{"type":"error","name":"OwnableUnauthorizedAccount","inputs":[{"name":"account","type":"address","internalType":"address"}]},{"type":"error","name":"StationAlreadyRegistered","inputs":[{"name":"station","type":"address","internalType":"address"}]}],"bytecode":{"object":"0x60808060405234610078573315610063575f8054336001600160a01b03198216811783556040519290916001600160a01b0316907f8be0079c531659141344cd1fd0a4f28419497f9722a3daafe3b4186f6b6457e09080a3610d31908161007d8239f35b631e4fbdf760e01b81525f6004820152602490fd5b5f80fdfe608060409080825260049081361015610016575f80fd5b5f3560e01c9081632118f9c414610992575080632d576eb01461096b5780632f4cb89c1461096b5780633acf27131461080c5780634dcf743b146107ee5780635cab1d2b146103c657806362c69854146107c65780636756d04b1461078f5780636e2916f014610769578063715018a614610712578063800eb124146106cd57806381ca862a146105245780638da5cb5b146104fd57806391bb1b90146104df57806392f859db146104a0578063ad7d85a6146103f6578063c10b379e146103c6578063cba5130214610252578063f06e0731146101be578063f12eb4d1146101965763f2fde38b14610107575f80fd5b3461019257602036600319011261019257610120610a51565b90610129610bea565b6001600160a01b0391821692831561017c5750505f54826bffffffffffffffffffffffff60a01b8216175f55167f8be0079c531659141344cd1fd0a4f28419497f9722a3daafe3b4186f6b6457e05f80a3005b905f6024925191631e4fbdf760e01b8352820152fd5b5f80fd5b50903461019257602036600319011261019257602091355f5260058252805f20549051908152f35b50346101925760203660031901126101925780359060035482101561021957506101e790610a67565b90546001600160a01b0360039290921b1c165f8181526002602090815290839020549251918252810191909152604090f35b606490602084519162461bcd60e51b83528201526013602482015272496e646578206f7574206f6620626f756e647360681b6044820152fd5b503461019257602091826003193601126101925781355f81815260018552829020549093906001600160a01b0316156103b057335f5260078152815f20845f52815260ff825f20541661038c57335f5260078152815f20845f528152815f20600160ff19825416179055335f5260068152815f205460088252825f20855f528252825f2055335f5260068152815f20805490600160401b82101561037957856103068361031e936001899796018155610ab0565b90919082549060031b91821b915f19901b1916179055565b845f52525f20908154905f1982146103665750600101905561033f81610c15565b337f8a8566c5eb469450f6f90a04afbd914eb4a3b2ac1ca48a4073412450e51967075f80a3005b601190634e487b7160e01b5f525260245ffd5b604185634e487b7160e01b5f525260245ffd5b50516338c7e7af60e11b815233918101918252602082019290925281906040010390fd5b50916024925191639c699e5b60e01b8352820152fd5b50903461019257602036600319011261019257602091355f526001825260018060a01b03815f2054169051908152f35b82346101925760208060031936011261019257906001600160a01b0361041a610a51565b165f5260068252805f208151928381835491828152019081935f52825f20905f5b81811061048c5750505084610451910385610ac5565b825181815293518185018190528493840192915f5b82811061047557505050500390f35b835185528695509381019392810192600101610466565b82548452928401926001928301920161043b565b5034610192576020366003190112610192573590600354821015610192576104c9602092610a67565b60018060a01b0391549060031b1c169051908152f35b5034610192576020366003190112610192576104fb9035610c15565b005b8234610192575f366003190112610192575f5490516001600160a01b039091168152602090f35b509034610192576020908160031936011261019257823591335f5260078152815f20835f52815260ff825f205416156106a857335f5260078152815f20835f528152815f2060ff198154169055838152815f208054908115610695575f198092019055335f5260088252825f20845f528252825f2054335f5260068352835f205482810190811161068257808203610637575b5050335f5260068252825f2080549586156106245750815f959601916105dd8383610ab0565b909182549160031b1b1916905555338352600881528183209084845252812055337f719824d45b63067fa7ffcde2f3ec8102c71d97a091bc965db5c97a83abb9aa0e5f80a3005b603190634e487b7160e01b5f525260245ffd5b61064a90335f5260068552855f20610ab0565b90549060031b1c335f52600684526106688161030684885f20610ab0565b335f5260088452845f20905f528352835f20555f806105b7565b601187634e487b7160e01b5f525260245ffd5b601186634e487b7160e01b5f525260245ffd5b50516332f5164d60e11b81523381840190815260208101929092529081906040010390fd5b82346101925780600319360112610192576020906001600160a01b036106f1610a51565b165f5260078252805f206024355f52825260ff815f20541690519015158152f35b34610192575f3660031901126101925761072a610bea565b5f80546001600160a01b0319811682556001600160a01b03167f8be0079c531659141344cd1fd0a4f28419497f9722a3daafe3b4186f6b6457e08280a3005b5090346101925760203660031901126101925761078860209235610b1c565b9051908152f35b8234610192576020366003190112610192576020906001600160a01b036107b4610a51565b165f5260028252805f20549051908152f35b50903461019257602036600319011261019257602091355f5260098252805f20549051908152f35b8234610192575f366003190112610192576020906003549051908152f35b509034610192578060031936011261019257610826610a51565b9060243592610833610bea565b6001600160a01b0392831692831561095c57841561094d57845f526020916001835281845f20541661093657845f5260028352835f205461091f57855f5260018352835f20856bffffffffffffffffffffffff60a01b825416179055845f526002835285845f205560035490600160401b82101561090c5750906108c08260016009959401600355610a67565b819291549060031b9187831b921b1916179055845f52600581526064835f20555242905f20557f1d47f6cc1785cb90a5e1251af3ec05aa28ec18ea8cf40f84b3b5b22ba18866e95f80a3005b604190634e487b7160e01b5f525260245ffd5b8351630ed4bd4f60e01b8152908101859052602490fd5b835163238af81d60e11b8152908101869052602490fd5b50905163e3c2448f60e01b8152fd5b50905163253cb75d60e21b8152fd5b5090346101925760203660031901126101925781602092355f528252805f20549051908152f35b839034610192575f36600319011261019257906003548083526020808401809260035f527fc2575a0e9e593c00f959f8c92f12db2869c3395a3b0502d05e2516446f71f85b905f5b818110610a3457505050846109f0910385610ac5565b825181815293518185018190528493840192915f5b828110610a1457505050500390f35b83516001600160a01b031685528695509381019392810192600101610a05565b82546001600160a01b0316845292840192600192830192016109da565b600435906001600160a01b038216820361019257565b600354811015610a9c5760035f527fc2575a0e9e593c00f959f8c92f12db2869c3395a3b0502d05e2516446f71f85b01905f90565b634e487b7160e01b5f52603260045260245ffd5b8054821015610a9c575f5260205f2001905f90565b90601f8019910116810190811067ffffffffffffffff821117610ae757604052565b634e487b7160e01b5f52604160045260245ffd5b91908203918211610b0857565b634e487b7160e01b5f52601160045260245ffd5b5f908152600160205260409020546001600160a01b031615610be657600460205260405f20546009602052610b5560405f205442610afb565b906064811115610bc957506032905b620151809081811115610baf575050601e905b6032019081603211610b085780821115610ba657610b9491610afb565b6064811115610ba35750606490565b90565b50506014610b94565b601e810290808204601e1490151715610b08570490610b77565b603281029080820460321490151715610b08576064900490610b64565b5f90565b5f546001600160a01b03163303610bfd57565b60405163118cdaa760e01b8152336004820152602490fd5b5f81815260016020908152604091829020546001600160a01b031615610cf65781516306e2916f60e41b815260048101849052918183602481305afa908115610ced575f91610c9e575b7fc92fe9a9fa0357552803f47ba7319ff92522391d05f3bc84a55ad0f7f03d87109350845f526005835281815f20556009835242815f205551908152a2565b90508183813d8311610ce6575b610cb58183610ac5565b81010312610192577fc92fe9a9fa0357552803f47ba7319ff92522391d05f3bc84a55ad0f7f03d8710925190610c5f565b503d610cab565b513d5f823e3d90fd5b50505056fea2646970667358221220ffb53de6b58bc222283502f5fd70697034e611f48ea825c229afa5d1926992c964736f6c63430008180033","linkReferences":{}},"methodIdentifiers":{"calculateSignalStrength(uint256)":"6e2916f0","frequencyToStation(uint256)":"c10b379e","getAllStations()":"2118f9c4","getListenerCount(uint256)":"2f4cb89c","getListenerStations(address)":"ad7d85a6","getStationByFrequency(uint256)":"5cab1d2b","getStationByIndex(uint256)":"f06e0731","getStationCount()":"4dcf743b","isTunedIn(address,uint256)":"800eb124","lastSignalUpdate(uint256)":"62c69854","listenerCounts(uint256)":"2d576eb0","owner()":"8da5cb5b","registerStation(address,uint256)":"3acf2713","renounceOwnership()":"715018a6","signalStrengths(uint256)":"f12eb4d1","stationToFrequency(address)":"6756d04b","stations(uint256)":"92f859db","transferOwnership(address)":"f2fde38b","tuneIn(uint256)":"cba51302","tuneOut(uint256)":"81ca862a","updateSignalStrength(uint256)":"91bb1b90"},"id":71}