{"abi":[{"type":"constructor","inputs":[],"stateMutability":"nonpayable"},{"type":"function","name":"approve","inputs":[{"name":"to","type":"address","internalType":"address"},{"name":"tokenId","type":"uint256","internalType":"uint256"}],"outputs":[],"stateMutability":"nonpayable"},{"type":"function","name":"attendance","inputs":[{"name":"","type":"uint256","internalType":"uint256"},{"name":"","type":"address","internalType":"address"}],"outputs":[{"name":"attendee","type":"address","internalType":"address"},{"name":"joinTime","type":"uint256","internalType":"uint256"},{"name":"leaveTime","type":"uint256","internalType":"uint256"},{"name":"totalTime","type":"uint256","internalType":"uint256"},{"name":"claimed","type":"bool","internalType":"bool"}],"stateMutability":"view"},{"type":"function","name":"authorizeCreator","inputs":[{"name":"creator","type":"address","internalType":"address"}],"outputs":[],"stateMutability":"nonpayable"},{"type":"function","name":"authorizedCreators","inputs":[{"name":"","type":"address","internalType":"address"}],"outputs":[{"name":"","type":"bool","internalType":"bool"}],"stateMutability":"view"},{"type":"function","name":"balanceOf","inputs":[{"name":"owner","type":"address","internalType":"address"}],"outputs":[{"name":"","type":"uint256","internalType":"uint256"}],"stateMutability":"view"},{"type":"function","name":"claimSessionNFT","inputs":[{"name":"sessionId","type":"uint256","internalType":"uint256"}],"outputs":[],"stateMutability":"nonpayable"},{"type":"function","name":"closeMinting","inputs":[{"name":"sessionId","type":"uint256","internalType":"uint256"}],"outputs":[],"stateMutability":"nonpayable"},{"type":"function","name":"createSession","inputs":[{"name":"frequency","type":"uint256","internalType":"uint256"},{"name":"title","type":"string","internalType":"string"},{"name":"description","type":"string","internalType":"string"},{"name":"duration","type":"uint256","internalType":"uint256"},{"name":"minAttendanceTime","type":"uint256","internalType":"uint256"}],"outputs":[{"name":"","type":"uint256","internalType":"uint256"}],"stateMutability":"nonpayable"},{"type":"function","name":"endSession","inputs":[{"name":"sessionId","type":"uint256","internalType":"uint256"}],"outputs":[],"stateMutability":"nonpayable"},{"type":"function","name":"getActiveSessions","inputs":[{"name":"limit","type":"uint256","internalType":"uint256"}],"outputs":[{"name":"","type":"tuple[]","internalType":"struct SessionNFTFactory.Session[]","components":[{"name":"id","type":"uint256","internalType":"uint256"},{"name":"frequency","type":"uint256","internalType":"uint256"},{"name":"host","type":"address","internalType":"address"},{"name":"title","type":"string","internalType":"string"},{"name":"description","type":"string","internalType":"string"},{"name":"startTime","type":"uint256","internalType":"uint256"},{"name":"endTime","type":"uint256","internalType":"uint256"},{"name":"minAttendanceTime","type":"uint256","internalType":"uint256"},{"name":"attendeeCount","type":"uint256","internalType":"uint256"},{"name":"nftsMinted","type":"uint256","internalType":"uint256"},{"name":"isActive","type":"bool","internalType":"bool"},{"name":"mintingClosed","type":"bool","internalType":"bool"}]}],"stateMutability":"view"},{"type":"function","name":"getApproved","inputs":[{"name":"tokenId","type":"uint256","internalType":"uint256"}],"outputs":[{"name":"","type":"address","internalType":"address"}],"stateMutability":"view"},{"type":"function","name":"getAttendance","inputs":[{"name":"sessionId","type":"uint256","internalType":"uint256"},{"name":"user","type":"address","internalType":"address"}],"outputs":[{"name":"","type":"tuple","internalType":"struct SessionNFTFactory.Attendance","components":[{"name":"attendee","type":"address","internalType":"address"},{"name":"joinTime","type":"uint256","internalType":"uint256"},{"name":"leaveTime","type":"uint256","internalType":"uint256"},{"name":"totalTime","type":"uint256","internalType":"uint256"},{"name":"claimed","type":"bool","internalType":"bool"}]}],"stateMutability":"view"},{"type":"function","name":"getSession","inputs":[{"name":"sessionId","type":"uint256","internalType":"uint256"}],"outputs":[{"name":"","type":"tuple","internalType":"struct SessionNFTFactory.Session","components":[{"name":"id","type":"uint256","internalType":"uint256"},{"name":"frequency","type":"uint256","internalType":"uint256"},{"name":"host","type":"address","internalType":"address"},{"name":"title","type":"string","internalType":"string"},{"name":"description","type":"string","internalType":"string"},{"name":"startTime","type":"uint256","internalType":"uint256"},{"name":"endTime","type":"uint256","internalType":"uint256"},{"name":"minAttendanceTime","type":"uint256","internalType":"uint256"},{"name":"attendeeCount","type":"uint256","internalType":"uint256"},{"name":"nftsMinted","type":"uint256","internalType":"uint256"},{"name":"isActive","type":"bool","internalType":"bool"},{"name":"mintingClosed","type":"bool","internalType":"bool"}]}],"stateMutability":"view"},{"type":"function","name":"getSessionAttendees","inputs":[{"name":"sessionId","type":"uint256","internalType":"uint256"}],"outputs":[{"name":"","type":"address[]","internalType":"address[]"}],"stateMutability":"view"},{"type":"function","name":"getUserSessionNFTs","inputs":[{"name":"user","type":"address","internalType":"address"}],"outputs":[{"name":"","type":"uint256[]","internalType":"uint256[]"}],"stateMutability":"view"},{"type":"function","name":"isApprovedForAll","inputs":[{"name":"owner","type":"address","internalType":"address"},{"name":"operator","type":"address","internalType":"address"}],"outputs":[{"name":"","type":"bool","internalType":"bool"}],"stateMutability":"view"},{"type":"function","name":"isEligible","inputs":[{"name":"sessionId","type":"uint256","internalType":"uint256"},{"name":"user","type":"address","internalType":"address"}],"outputs":[{"name":"","type":"bool","internalType":"bool"}],"stateMutability":"view"},{"type":"function","name":"joinSession","inputs":[{"name":"sessionId","type":"uint256","internalType":"uint256"}],"outputs":[],"stateMutability":"nonpayable"},{"type":"function","name":"leaveSession","inputs":[{"name":"sessionId","type":"uint256","internalType":"uint256"}],"outputs":[],"stateMutability":"nonpayable"},{"type":"function","name":"name","inputs":[],"outputs":[{"name":"","type":"string","internalType":"string"}],"stateMutability":"view"},{"type":"function","name":"owner","inputs":[],"outputs":[{"name":"","type":"address","internalType":"address"}],"stateMutability":"view"},{"type":"function","name":"ownerOf","inputs":[{"name":"tokenId","type":"uint256","internalType":"uint256"}],"outputs":[{"name":"","type":"address","internalType":"address"}],"stateMutability":"view"},{"type":"function","name":"renounceOwnership","inputs":[],"outputs":[],"stateMutability":"nonpayable"},{"type":"function","name":"revokeCreator","inputs":[{"name":"creator","type":"address","internalType":"address"}],"outputs":[],"stateMutability":"nonpayable"},{"type":"function","name":"safeTransferFrom","inputs":[{"name":"from","type":"address","internalType":"address"},{"name":"to","type":"address","internalType":"address"},{"name":"tokenId","type":"uint256","internalType":"uint256"}],"outputs":[],"stateMutability":"nonpayable"},{"type":"function","name":"safeTransferFrom","inputs":[{"name":"from","type":"address","internalType":"address"},{"name":"to","type":"address","internalType":"address"},{"name":"tokenId","type":"uint256","internalType":"uint256"},{"name":"data","type":"bytes","internalType":"bytes"}],"outputs":[],"stateMutability":"nonpayable"},{"type":"function","name":"sessionAttendees","inputs":[{"name":"","type":"uint256","internalType":"uint256"},{"name":"","type":"uint256","internalType":"uint256"}],"outputs":[{"name":"","type":"address","internalType":"address"}],"stateMutability":"view"},{"type":"function","name":"sessionCount","inputs":[],"outputs":[{"name":"","type":"uint256","internalType":"uint256"}],"stateMutability":"view"},{"type":"function","name":"sessions","inputs":[{"name":"","type":"uint256","internalType":"uint256"}],"outputs":[{"name":"id","type":"uint256","internalType":"uint256"},{"name":"frequency","type":"uint256","internalType":"uint256"},{"name":"host","type":"address","internalType":"address"},{"name":"title","type":"string","internalType":"string"},{"name":"description","type":"string","internalType":"string"},{"name":"startTime","type":"uint256","internalType":"uint256"},{"name":"endTime","type":"uint256","internalType":"uint256"},{"name":"minAttendanceTime","type":"uint256","internalType":"uint256"},{"name":"attendeeCount","type":"uint256","internalType":"uint256"},{"name":"nftsMinted","type":"uint256","internalType":"uint256"},{"name":"isActive","type":"bool","internalType":"bool"},{"name":"mintingClosed","type":"bool","internalType":"bool"}],"stateMutability":"view"},{"type":"function","name":"setApprovalForAll","inputs":[{"name":"operator","type":"address","internalType":"address"},{"name":"approved","type":"bool","internalType":"bool"}],"outputs":[],"stateMutability":"nonpayable"},{"type":"function","name":"supportsInterface","inputs":[{"name":"interfaceId","type":"bytes4","internalType":"bytes4"}],"outputs":[{"name":"","type":"bool","internalType":"bool"}],"stateMutability":"view"},{"type":"function","name":"symbol","inputs":[],"outputs":[{"name":"","type":"string","internalType":"string"}],"stateMutability":"view"},{"type":"function","name":"tokenCount","inputs":[],"outputs":[{"name":"","type":"uint256","internalType":"uint256"}],"stateMutability":"view"},{"type":"function","name":"tokenToSession","inputs":[{"name":"","type":"uint256","internalType":"uint256"}],"outputs":[{"name":"","type":"uint256","internalType":"uint256"}],"stateMutability":"view"},{"type":"function","name":"tokenURI","inputs":[{"name":"tokenId","type":"uint256","internalType":"uint256"}],"outputs":[{"name":"","type":"string","internalType":"string"}],"stateMutability":"view"},{"type":"function","name":"totalAttendees","inputs":[],"outputs":[{"name":"","type":"uint256","internalType":"uint256"}],"stateMutability":"view"},{"type":"function","name":"totalNFTsMinted","inputs":[],"outputs":[{"name":"","type":"uint256","internalType":"uint256"}],"stateMutability":"view"},{"type":"function","name":"transferFrom","inputs":[{"name":"from","type":"address","internalType":"address"},{"name":"to","type":"address","internalType":"address"},{"name":"tokenId","type":"uint256","internalType":"uint256"}],"outputs":[],"stateMutability":"nonpayable"},{"type":"function","name":"transferOwnership","inputs":[{"name":"newOwner","type":"address","internalType":"address"}],"outputs":[],"stateMutability":"nonpayable"},{"type":"function","name":"userSessionNFTs","inputs":[{"name":"","type":"address","internalType":"address"},{"name":"","type":"uint256","internalType":"uint256"}],"outputs":[{"name":"","type":"uint256","internalType":"uint256"}],"stateMutability":"view"},{"type":"event","name":"Approval","inputs":[{"name":"owner","type":"address","indexed":true,"internalType":"address"},{"name":"approved","type":"address","indexed":true,"internalType":"address"},{"name":"tokenId","type":"uint256","indexed":true,"internalType":"uint256"}],"anonymous":false},{"type":"event","name":"ApprovalForAll","inputs":[{"name":"owner","type":"address","indexed":true,"internalType":"address"},{"name":"operator","type":"address","indexed":true,"internalType":"address"},{"name":"approved","type":"bool","indexed":false,"internalType":"bool"}],"anonymous":false},{"type":"event","name":"AttendeeJoined","inputs":[{"name":"sessionId","type":"uint256","indexed":true,"internalType":"uint256"},{"name":"attendee","type":"address","indexed":true,"internalType":"address"}],"anonymous":false},{"type":"event","name":"AttendeeLeft","inputs":[{"name":"sessionId","type":"uint256","indexed":true,"internalType":"uint256"},{"name":"attendee","type":"address","indexed":true,"internalType":"address"},{"name":"totalTime","type":"uint256","indexed":false,"internalType":"uint256"}],"anonymous":false},{"type":"event","name":"BatchMetadataUpdate","inputs":[{"name":"_fromTokenId","type":"uint256","indexed":false,"internalType":"uint256"},{"name":"_toTokenId","type":"uint256","indexed":false,"internalType":"uint256"}],"anonymous":false},{"type":"event","name":"MetadataUpdate","inputs":[{"name":"_tokenId","type":"uint256","indexed":false,"internalType":"uint256"}],"anonymous":false},{"type":"event","name":"MintingClosed","inputs":[{"name":"sessionId","type":"uint256","indexed":true,"internalType":"uint256"},{"name":"totalMinted","type":"uint256","indexed":false,"internalType":"uint256"}],"anonymous":false},{"type":"event","name":"OwnershipTransferred","inputs":[{"name":"previousOwner","type":"address","indexed":true,"internalType":"address"},{"name":"newOwner","type":"address","indexed":true,"internalType":"address"}],"anonymous":false},{"type":"event","name":"SessionCreated","inputs":[{"name":"sessionId","type":"uint256","indexed":true,"internalType":"uint256"},{"name":"frequency","type":"uint256","indexed":false,"internalType":"uint256"},{"name":"host","type":"address","indexed":true,"internalType":"address"},{"name":"title","type":"string","indexed":false,"internalType":"string"}],"anonymous":false},{"type":"event","name":"SessionEnded","inputs":[{"name":"sessionId","type":"uint256","indexed":true,"internalType":"uint256"},{"name":"attendeeCount","type":"uint256","indexed":false,"internalType":"uint256"}],"anonymous":false},{"type":"event","name":"SessionNFTMinted","inputs":[{"name":"sessionId","type":"uint256","indexed":true,"internalType":"uint256"},{"name":"tokenId","type":"uint256","indexed":true,"internalType":"uint256"},{"name":"attendee","type":"address","indexed":true,"internalType":"address"}],"anonymous":false},{"type":"event","name":"Transfer","inputs":[{"name":"from","type":"address","indexed":true,"internalType":"address"},{"name":"to","type":"address","indexed":true,"internalType":"address"},{"name":"tokenId","type":"uint256","indexed":true,"internalType":"uint256"}],"anonymous":false},{"type":"error","name":"ERC721IncorrectOwner","inputs":[{"name":"sender","type":"address","internalType":"address"},{"name":"tokenId","type":"uint256","internalType":"uint256"},{"name":"owner","type":"address","internalType":"address"}]},{"type":"error","name":"ERC721InsufficientApproval","inputs":[{"name":"operator","type":"address","internalType":"address"},{"name":"tokenId","type":"uint256","internalType":"uint256"}]},{"type":"error","name":"ERC721InvalidApprover","inputs":[{"name":"approver","type":"address","internalType":"address"}]},{"type":"error","name":"ERC721InvalidOperator","inputs":[{"name":"operator","type":"address","internalType":"address"}]},{"type":"error","name":"ERC721InvalidOwner","inputs":[{"name":"owner","type":"address","internalType":"address"}]},{"type":"error","name":"ERC721InvalidReceiver","inputs":[{"name":"receiver","type":"address","internalType":"address"}]},{"type":"error","name":"ERC721InvalidSender","inputs":[{"name":"sender","type":"address","internalType":"address"}]},{"type":"error","name":"ERC721NonexistentToken","inputs":[{"name":"tokenId","type":"uint256","internalType":"uint256"}]},{"type":"error","name":"OwnableInvalidOwner","inputs":[{"name":"owner","type":"address","internalType":"address"}]},{"type":"error","name":"OwnableUnauthorizedAccount","inputs":[{"name":"account","type":"address","internalType":"address"}]},{"type":"error","name":"ReentrancyGuardReentrantCall","inputs":[]}],"bytecode":{"object":"0x60803462000383576040906001600160401b039080830182811182821017620002a157835260128152602092712bb2b119902930b234b79029b2b9b9b4b7b760711b8483015280519281840184811082821117620002a1578252600784526629a2a9a9a4a7a760c91b85850152825193818511620002a1575f54946001948587811c9716801562000378575b8888101462000282578190601f9788811162000325575b508890888311600114620002c1575f92620002b5575b50505f19600383901b1c191690851b175f555b8051918211620002a15783548481811c9116801562000296575b8782101462000282578581116200023a575b5085948211600114620001d75793819293945f92620001cb575b50505f19600383901b1c191690831b1782555b3315620001b55760078054336001600160a01b031982168117909255825194600f9290916001600160a01b03167f8be0079c531659141344cd1fd0a4f28419497f9722a3daafe3b4186f6b6457e05f80a3837f9b779b17422d0df92223018b32b4d1fa46e071723d6817e2486d003becc55f0055335f52525f209060ff198254161790556135049081620003888239f35b51631e4fbdf760e01b81525f6004820152602490fd5b015190505f8062000111565b601f19821694845f52865f20915f5b8888821062000225575050838697969596106200020c575b505050811b01825562000124565b01515f1960f88460031b161c191690555f8080620001fe565b828401518555938701939283019201620001e6565b845f52865f208680850160051c82019289861062000278575b0160051c019085905b8281106200026c575050620000f7565b5f81550185906200025c565b9250819262000253565b634e487b7160e01b5f52602260045260245ffd5b90607f1690620000e5565b634e487b7160e01b5f52604160045260245ffd5b015190505f80620000b8565b90879350601f198316915f80528a5f20925f5b8c8282106200030e5750508411620002f5575b505050811b015f55620000cb565b01515f1960f88460031b161c191690555f8080620002e7565b8385015186558b97909501949384019301620002d4565b9091505f8052885f208880850160051c8201928b86106200036e575b918991869594930160051c01915b8281106200035f575050620000a2565b5f81558594508991016200034f565b9250819262000341565b96607f16966200008b565b5f80fdfe6080806040526004361015610012575f80fd5b5f3560e01c90816301ffc9a7146127915750806305991eba146125da57806306fdde0314612533578063081812fc146124f7578063095ea7b3146124165780630a5d288c146123f9578063100bff201461238257806323b872dd1461236b5780632517ef3f146122b957806326cc5583146121a2578063402ff0db1461215b57806342842e0e1461212e5780634ce02835146120d75780634eb7e95f146120ba5780634f904f0014611f96578063592e0e0014611f66578063628d35c914611e745780636352211e14611e4457806370a0823114611dee578063715018a614611d935780637334716d14611c0557806373cd833614611be857806383c4b7a314611b035780638a2ae699146116595780638da5cb5b1461163157806395d89b41146115535780639f181b5e14611536578063a22cb4651461148c578063b88d4fde1461141f578063bd8daecd14611371578063c0e69af614611330578063c695502a146112f3578063c87b56dd1461093e578063c9151d44146108ee578063d8625b07146108aa578063e17d53a814610880578063e1b1aaeb146107b2578063e985e9c514610760578063f2fde38b146106d95763fe282596146101d4575f80fd5b346106d55760a03660031901126106d5576024356001600160401b0381116106d557610204903690600401612b11565b906044356001600160401b0381116106d557610224903690600401612b11565b92906064359060843590335f52600f60205260ff60405f20541680156106c1575b61024e90612d16565b82821161067157610260600854612b8a565b928360085542019081421161065d576102a89060405197610280896129c6565b85895260043560208a01523360408a015261029c36888a612adb565b60608a01523691612adb565b60808701524260a087015260c086015260e08501525f6101008501525f61012085015260016101408501525f6101608501525f52600a60205260405f209183518355602084015160018401556002830160018060a01b036040860151166001600160601b0360a01b82541617905560608401518051906001600160401b03821161058357819061033b6003870154612973565b601f811161060d575b50602090601f83116001146105a2575f92610597575b50508160011b915f199060031b1c19161760038401555b60808401519384516001600160401b038111610583576103946004860154612973565b95601f871161053f575b602096508690601f83116001146104b057958261016093600a937f2074aefe51de09b9c814910acc61f86b6f82a7380e68448b0c774b1b1c23c381995f926104a5575b50508160011b915f199060031b1c19161760048201555b60a0840151600582015560c0840151600682015560e0840151600782015561010084015160088201556101208401516009820155019161044b6101408201511515849060ff801983541691151516179055565b0151151561ff0082549160081b169061ff0019161790556008549283918360405191600435835260408884015281604084015260608301375f606085830101526060813395601f80199101168101030190a3604051908152f35b015190505f806103e1565b90601f19831691600488015f52885f20925f5b818110610528575093600a937f2074aefe51de09b9c814910acc61f86b6f82a7380e68448b0c774b1b1c23c3819993600193836101609810610510575b505050811b0160048201556103f8565b01515f1960f88460031b161c191690555f8080610500565b92938a6001819287860151815501950193016104c3565b600486015f5260205f20601f830160051c81016020841061057c575b601f890160051c8201811061057157505061039e565b5f815560010161055b565b508061055b565b634e487b7160e01b5f52604160045260245ffd5b015190505f8061035a565b600387015f908152602081209350601f198516905b8181106105f557509084600195949392106105dd575b505050811b016003840155610371565b01515f1960f88460031b161c191690555f80806105cd565b929360206001819287860151815501950193016105b7565b909150600386015f5260205f20601f840160051c810160208510610656575b90849392915b601f830160051c82018110610648575050610344565b5f8155859450600101610632565b508061062c565b634e487b7160e01b5f52601160045260245ffd5b60405162461bcd60e51b815260206004820152602260248201527f53657373696f6e4e46543a20696e76616c6964206d696e20617474656e64616e604482015261636560f01b6064820152608490fd5b506007546001600160a01b03163314610245565b5f80fd5b346106d55760203660031901126106d5576106f261285c565b6106fa613081565b6001600160a01b0390811690811561074857600754826001600160601b0360a01b821617600755167f8be0079c531659141344cd1fd0a4f28419497f9722a3daafe3b4186f6b6457e05f80a3005b604051631e4fbdf760e01b81525f6004820152602490fd5b346106d55760403660031901126106d55761077961285c565b610781612872565b9060018060a01b038091165f52600560205260405f2091165f52602052602060ff60405f2054166040519015158152f35b346106d55760403660031901126106d55760a06107cd612872565b5f60806040516107dc816129ab565b82815282602082015282604082015282606082015201526004355f52600b60205260405f20600180841b038092165f5260205260405f209060405190610821826129ab565b8254169182825260018101546020830190815260028201549060408401918252608060ff600460038601549560608801968752015416940193151584526040519485525160208501525160408401525160608301525115156080820152f35b346106d55760203660031901126106d5576004355f52600d602052602060405f2054604051908152f35b346106d55760203660031901126106d5576108c361285c565b6108cb613081565b6001600160a01b03165f908152600f60205260409020805460ff19166001179055005b346106d55760403660031901126106d5576024356004355f52600c60205260405f2080548210156106d5576020916109259161295e565b905460405160039290921b1c6001600160a01b03168152f35b346106d55760203660031901126106d55760043561095b81613047565b50805f52600d60205260405f205490815f52600a60205260405f2091600183015491600a8304610e0060df600a610991846131f7565b9606936109a66109a0866131f7565b916131f7565b966040519788927f3c73766720786d6c6e733d22687474703a2f2f7777772e77332e6f72672f323060208501527f30302f737667222076696577426f783d223020302034303020343030223e000060408501527f3c646566733e3c6c696e6561724772616469656e742069643d22626722207831605e8501527f3d223025222079313d223025222078323d2231303025222079323d2231303025607e85015261111f60f11b609e8501527f3c73746f70206f66667365743d22302522207374796c653d2273746f702d636f60a08501527f6c6f723a23316131613265222f3e3c73746f70206f66667365743d223130302560c08501527f22207374796c653d2273746f702d636f6c6f723a23313632313365222f3e3c2f60e0850152753634b732b0b923b930b234b2b73a1f1e17b232b3399f60511b6101008501527f3c726563742077696474683d2234303022206865696768743d223430302220666101168501526f34b6361e913ab9361411b1339491179f60811b6101368501527f3c636972636c652063783d22323030222063793d223135302220723d223830226101468501527f2066696c6c3d226e6f6e6522207374726f6b653d2223303064346161222073746101668501526f3937b5b296bbb4b23a341e911991179f60811b6101868501527f3c7465787420783d223230302220793d223135352220746578742d616e63686f6101968501527f723d226d6964646c65222066696c6c3d22233030643461612220666f6e742d7390816101b68601527f697a653d2232342220666f6e742d66616d696c793d226d6f6e6f7370616365226101d68601526e1f29a2a9a9a4a7a71e17ba32bc3a1f60891b6101f68601527f3c7465787420783d223230302220793d223236302220746578742d616e63686f6102058601527f723d226d6964646c65222066696c6c3d22236666662220666f6e742d73697a656102258601527f3d2231382220666f6e742d66616d696c793d2273616e732d7365726966223e00610245860152610ca28c600361026488019101612f98565b93661e17ba32bc3a1f60c91b948581527f3c7465787420783d223230302220793d223239302220746578742d616e63686f60078201527f723d226d6964646c65222066696c6c3d22233838382220666f6e742d73697a6560278201527f3d2231342220666f6e742d66616d696c793d226d6f6e6f7370616365223e00006047820152610d38825180936020606585019101612816565b01601760f91b6065820152610d57825180936020606685019101612816565b0190691023269e17ba32bc3a1f60b11b60668301527f3c7465787420783d223230302220793d223335302220746578742d616e63686f607083015260908201527f697a653d2231322220666f6e742d66616d696c793d226d6f6e6f73706163652260b0820152613e2360f01b60d0820152610ddc82518093602060d285019101612816565b019060d2820152651e17b9bb339f60d11b60d98201520360bf8101875201856129fd565b610e27610e21610e21610e1b610e15876131f7565b9761336f565b956131f7565b926131f7565b60028601546040805193916001600160a01b03169084018085116001600160401b03909111176105835760408401604052601084526f181899199a1a9b1b9c1cb0b131b232b360811b6020850152604051938460608101106001600160401b036060870111176105835760608501604052602a855260403660208701378451156112df57603060208601538451600110156112df57607860218601535f5b60148110611236575050506005870154610ede906131f7565b94604051978897717b226e616d65223a2253657373696f6e202360701b60208a01528051908160328b019160200191610f1692612816565b8801603281016201016960ed1b90526035016003820190610f3691612f98565b7f222c226465736372697074696f6e223a2250726f6f66206f6620617474656e648152602081017f616e636520666f72205765623320526164696f2073657373696f6e3a200000009052603d019060040190610f9191612f98565b7f222c22696d616765223a22646174613a696d6167652f7376672b786d6c3b6261815260208101641cd94d8d0b60da1b905281519182602583019160200191610fd992612816565b6f222c2261747472696275746573223a5b60801b602592909101918201527f7b2274726169745f74797065223a2253657373696f6e204944222c2276616c7560358201526332911d1160e11b60558201528151916110409083906059840190602001612816565b019262089f4b60ea1b93846059820152605c81017f7b2274726169745f74797065223a224672657175656e6379222c2276616c7565905262111d1160e91b607c82015281519182607f8301916020019161109992612816565b01607f8101601760f91b9052815191826080830191602001916110bb92612816565b0165081193489f4b60d21b6080820152608681017f7b2274726169745f74797065223a22486f7374222c22646973706c61795f7479905260a681017f7065223a2261646472657373222c2276616c7565223a2200000000000000000090528151918260bd8301916020019161112f92612816565b019060bd82015260c081017f7b2274726169745f74797065223a2244617465222c22646973706c61795f74799052723832911d113230ba329116113b30b63ab2911d60691b60e08201528151918260f38301916020019161118f92612816565b0160f38101607d60f81b905260f48101615d7d60f01b90520360d68101825260f6016111bb90826129fd565b6111c49061336f565b6040518091602082017f646174613a6170706c69636174696f6e2f6a736f6e3b6261736536342c000000905280519081603d8401916020019161120692612816565b810103601d81018252603d0161121c90826129fd565b6040518091602082526020820161123291612837565b0390f35b601381810390811161065d576001600160fd1b038116810361065d5760ff60f81b61126c600f868460031b1c60041c168561335e565b5116828060011b046002148315171561065d578260011b60020160021161065d575f1a61129f8360011b6002018961335e565b536112b7600f8560ff60f81b9360031b1c168461335e565b5116908060011b6003018060031161065d576112d86001935f1a918961335e565b5301610ec5565b634e487b7160e01b5f52603260045260245ffd5b346106d55760203660031901126106d5576001600160a01b0361131461285c565b165f52600f602052602060ff60405f2054166040519015158152f35b346106d55760203660031901126106d55761134961285c565b611351613081565b6001600160a01b03165f908152600f60205260409020805460ff19169055005b346106d5576020806003193601126106d5576001600160a01b0361139361285c565b165f52600e815260405f20604051908183825491828152019081925f52845f20905f5b8682821061140b5786866113cc828803836129fd565b60405192839281840190828552518091526040840192915f5b8281106113f457505050500390f35b8351855286955093810193928101926001016113e5565b8354855290930192600192830192016113b6565b346106d55760803660031901126106d55761143861285c565b611440612872565b90604435606435926001600160401b0384116106d557366023850112156106d55761147861148a943690602481600401359101612adb565b92611484838383612b98565b336130ad565b005b346106d55760403660031901126106d5576114a561285c565b60243590811515908183036106d5576001600160a01b031691821561151d576114ef90335f52600560205260405f20845f5260205260405f209060ff801983541691151516179055565b6040519081527f17307eab39ab6107e8899845ad3d59bd9653f200f220920489ca2b5937696c3160203392a3005b604051630b61174360e31b815260048101849052602490fd5b346106d5575f3660031901126106d5576020600954604051908152f35b346106d5575f3660031901126106d5576040515f6001826001549261157784612973565b92838352602094856001821691825f146116115750506001146115b6575b506115a2925003836129fd565b611232604051928284938452830190612837565b84915060015f527fb10e2d527612073b26eecdfd717e6a320cf44b4afac2b0732d9fcbe2b7fa0cf6905f915b8583106115f95750506115a2935082010185611595565b805483890185015287945086939092019181016115e2565b60ff1916858201526115a295151560051b85010192508791506115959050565b346106d5575f3660031901126106d5576007546040516001600160a01b039091168152602090f35b346106d5576020806003193601126106d557600435611676613018565b805f52600a825260405f209060ff600a83015461169582821615612f16565b60081c16611abe57805f52600b835260405f20335f52835260405f2060018101548015611a7957600482019182549160ff8316611a345760038201549182159081611a27575b50611a12575b506007850154116119c15760019060ff19161790556009916117038354612b8a565b808455604051611712816129e2565b5f815233156119a9575f8281526002875260409020546001600160a01b031680151590839082611978575b335f526003895260405f2060018154019055815f526002895260405f20336001600160601b0360a01b82541617905533907fddf252ad1be2c89b69c2b068fc378daa952ba7f163c4a11628f55a4df523b3ef5f80a461196057333b611849575b5050909192600e9084545f52600d81528360405f2055335f525260405f20908354825492600160401b84101561058357836117de916001889601815561295e565b819291549060031b91821b915f19901b1916179055016117fe8154612b8a565b905561180b601154612b8a565b601155339154907fc8daef29fb27543207fe5209399c14fc5643dd2990112dfc3a835c4e1e23977b5f80a460015f805160206134af83398151915255005b856118839160405180938192630a85bd0160e11b968784523360048501525f60248501526044840152608060648401526084830190612837565b03815f335af15f9181611920575b506118ea57853d156118e2573d906118a882612ac0565b916118b660405193846129fd565b82523d5f8284013e5b815191826118df57604051633250574960e11b8152336004820152602490fd5b01fd5b6060906118bf565b63ffffffff60e096939495961b160361190857929190600e8561179d565b604051633250574960e11b8152336004820152602490fd5b9091508681813d8311611959575b61193881836129fd565b810103126106d557516001600160e01b0319811681036106d5579087611891565b503d61192e565b6040516339e3563760e11b81525f6004820152602490fd5b5f8281526004602052604080822080546001600160a01b031916905582825260038b52902080545f1901905561173d565b604051633250574960e11b81525f6004820152602490fd5b60405162461bcd60e51b815260048101869052602360248201527f53657373696f6e4e46543a20696e73756666696369656e7420617474656e64616044820152626e636560e81b6064820152608490fd5b611a2191506006860154612d62565b866116e1565b60029150015415886116db565b60405162461bcd60e51b815260048101889052601b60248201527f53657373696f6e4e46543a20616c726561647920636c61696d656400000000006044820152606490fd5b60405162461bcd60e51b815260048101869052601a60248201527f53657373696f6e4e46543a20646964206e6f7420617474656e640000000000006044820152606490fd5b60405162461bcd60e51b815260048101849052601a60248201527f53657373696f6e4e46543a206d696e74696e6720636c6f7365640000000000006044820152606490fd5b346106d55760203660031901126106d5576004355f52600a602052606060405f20805460ff60018301549160018060a01b0360028501541693611b4860038201612a1e565b93611b5560048301612a1e565b94600583015495611bb1600685015491611ba3600787015494600888015496600a60098a0154990154996040519e8f9e8f9061018094859483526020830152604082015201528c0190612837565b908a820360808c0152612837565b9660a089015260c088015260e0870152610100860152610120850152818116151561014085015260081c1615156101608301520390f35b346106d5575f3660031901126106d5576020600854604051908152f35b346106d5576020806003193601126106d557600435905f90600854805b80151580611d8a575b15611c6957805f5260ff600a80855260405f20015416611c54575b611c4f90612f61565b611c22565b92611c61611c4f91612b8a565b939050611c46565b509250611c7582612f6d565b92611c8360405194856129fd565b828452611c8f83612f6d565b601f1901825f5b828110611d74575050505f5b81151580611d6b575b15611d0e57815f52600a9182845260ff60405f209384015416611cda575b611cd4919250612f61565b90611ca2565b611d0582611cf4611cee611cd49592612b8a565b95612dc8565b611cfe828a612f84565b5287612f84565b50829150611cc9565b6040805184815286518186018190525f92600582901b830181019189880191889085015b828710611d3f5785850386f35b909192938280611d5b600193603f198a820301865288516128bd565b9601920196019592919092611d32565b50838110611cab565b611d7c612d6f565b828289010152018390611c96565b50848410611c2b565b346106d5575f3660031901126106d557611dab613081565b600780546001600160a01b031981169091555f906001600160a01b03167f8be0079c531659141344cd1fd0a4f28419497f9722a3daafe3b4186f6b6457e08280a3005b346106d55760203660031901126106d5576001600160a01b03611e0f61285c565b168015611e2c575f526003602052602060405f2054604051908152f35b6040516322718ad960e21b81525f6004820152602490fd5b346106d55760203660031901126106d5576020611e62600435613047565b6040516001600160a01b039091168152f35b346106d55760203660031901126106d557600435805f52600a60205260405f20600a81018054611ea760ff821615612f16565b6002830154611ecb90336001600160a01b0391821614908115611f58575b50612d16565b60ff8160081c16611f135761ff001916610100179055600901546040519081527ff2b509d874ab6629be09a8d5b7af1164499b25725e9d99e292a9cb7704e6bf0890602090a2005b60405162461bcd60e51b815260206004820152601a60248201527f53657373696f6e4e46543a20616c726561647920636c6f7365640000000000006044820152606490fd5b905060075416331486611ec5565b346106d55760403660031901126106d5576020611f8c611f84612872565b600435612e6c565b6040519015158152f35b346106d5576020806003193601126106d557600435611fb3613018565b805f52600b825260405f20335f52825260405f206001810154801561207557600282018054612030579161200f600395927f25793a3661fdefe130100664d5465ce1763c2d687d1065851db28034d5b311bf9442905542612d62565b94859101556040519384523393a360015f805160206134af83398151915255005b60405162461bcd60e51b815260048101869052601860248201527f53657373696f6e4e46543a20616c7265616479206c65667400000000000000006044820152606490fd5b60405162461bcd60e51b815260048101859052601a60248201527f53657373696f6e4e46543a206e6f7420696e2073657373696f6e0000000000006044820152606490fd5b346106d5575f3660031901126106d5576020601154604051908152f35b346106d55760403660031901126106d5576120f061285c565b6001600160a01b03165f908152600e60205260409020805460243591908210156106d5576020916121209161295e565b90546040519160031b1c8152f35b346106d55761148a61213f36612888565b906040519261214d846129e2565b5f8452611484838383612b98565b346106d55760203660031901126106d557612174612d6f565b506004355f52600a60205261123261218e60405f20612dc8565b6040519182916020835260208301906128bd565b346106d5576020806003193601126106d55760043590815f52600a815260405f2090600a82018054916121d760ff8416612b3e565b60028481015490936001600160a01b0393918416331480156122ac575b6121fd90612d16565b60ff19169055426006850155845f52600c815260405f20905f5b825481101561227b57600190875f52600b83528460405f20612239838761295e565b929054600393841b1c165f52845260405f2090878201805415612260575b50505001612217565b4290556122708483015442612d62565b910155888080612257565b867fe4bdf3c3959e99d1ee4e5254bb9290bc5f6e3defb54820041d5245054448bb73836008890154604051908152a2005b50600754841633146121f4565b346106d5576020806003193601126106d5576004355f52600c815260405f20604051908183825491828152019081925f52845f20905f5b8682821061234e578686612306828803836129fd565b60405192839281840190828552518091526040840192915f5b82811061232e57505050500390f35b83516001600160a01b03168552869550938101939281019260010161231f565b83546001600160a01b0316855290930192600192830192016122f0565b346106d55761148a61237c36612888565b91612b98565b346106d55760403660031901126106d55760a061239d612872565b6004355f52600b60205260405f20600180841b038092165f5260205260405f209081541690600181015490600281015460ff60046003840154930154169260405194855260208501526040840152606083015215156080820152f35b346106d5575f3660031901126106d5576020601054604051908152f35b346106d55760403660031901126106d55761242f61285c565b60243561243b81613047565b331515806124e4575b806124bb575b6124a3576001600160a01b039283169282918491167f8c5be1e5ebec7d5bd14f71427d1e84f3dd0314c0f7b2291e5b200ac8c7c3b9255f80a45f90815260046020526040902080546001600160a01b0319169091179055005b60405163a9fbf51f60e01b8152336004820152602490fd5b5060018060a01b0381165f52600560205260405f20335f5260205260ff60405f2054161561244a565b506001600160a01b038116331415612444565b346106d55760203660031901126106d55760043561251481613047565b505f526004602052602060018060a01b0360405f205416604051908152f35b346106d5575f3660031901126106d5576040515f8054908261255483612973565b91828252602093600190856001821691825f1461161157505060011461258157506115a2925003836129fd565b5f808052859250907f290decd9548b62a8d60345a988386fc84ba6bc95484008f6362f93160ef3e5635b8583106125c25750506115a2935082010185611595565b805483890185015287945086939092019181016125ab565b346106d5576020806003193601126106d557600435906125f8613018565b815f52600a815260405f2061261360ff600a83015416612b3e565b825f52600b825260405f20335f528252600160405f20015461274c57600c6040519261263e846129ab565b3384526126bb8185014281526004604087015f8152606088015f815260808901915f83528a5f52600b875260405f20335f52875260405f209460018060a01b03809b51166001600160601b0360a01b87541617865551600186015551600285015551600384015551151591019060ff801983541691151516179055565b845f525260405f2091825492600160401b84101561058357836126e591600160089601815561295e565b819291549060031b9133831b921b1916179055016127038154612b8a565b9055612710601054612b8a565b60105533907f4b997f92191422d5a5aac5fb5fc089dc7695ae04709bab99610954bde0ecfb505f80a360015f805160206134af83398151915255005b60405162461bcd60e51b815260048101839052601a60248201527f53657373696f6e4e46543a20616c7265616479206a6f696e65640000000000006044820152606490fd5b346106d55760203660031901126106d5576004359063ffffffff60e01b82168092036106d557602091632483248360e11b81149081156127d3575b5015158152f35b6380ac58cd60e01b811491508115612805575b81156127f4575b50836127cc565b6301ffc9a760e01b149050836127ed565b635b5e139f60e01b811491506127e6565b5f5b8381106128275750505f910152565b8181015183820152602001612818565b9060209161285081518092818552858086019101612816565b601f01601f1916010190565b600435906001600160a01b03821682036106d557565b602435906001600160a01b03821682036106d557565b60609060031901126106d5576001600160a01b039060043582811681036106d5579160243590811681036106d5579060443590565b9061290d6128fb610180845184526020850151602085015260018060a01b036040860151166040850152606085015190806060860152840190612837565b60808401518382036080850152612837565b9160a081015160a083015260c081015160c083015260e081015160e0830152610100808201519083015261012080820151908301526101408082015115159083015261016080910151151591015290565b80548210156112df575f5260205f2001905f90565b90600182811c921680156129a1575b602083101461298d57565b634e487b7160e01b5f52602260045260245ffd5b91607f1691612982565b60a081019081106001600160401b0382111761058357604052565b61018081019081106001600160401b0382111761058357604052565b602081019081106001600160401b0382111761058357604052565b90601f801991011681019081106001600160401b0382111761058357604052565b9060405191825f8254612a3081612973565b908184526020946001916001811690815f14612a9e5750600114612a60575b505050612a5e925003836129fd565b565b5f90815285812095935091905b818310612a86575050612a5e93508201015f8080612a4f565b85548884018501529485019487945091830191612a6d565b92505050612a5e94925060ff191682840152151560051b8201015f8080612a4f565b6001600160401b03811161058357601f01601f191660200190565b929192612ae782612ac0565b91612af560405193846129fd565b8294818452818301116106d5578281602093845f960137010152565b9181601f840112156106d5578235916001600160401b0383116106d557602083818601950101116106d557565b15612b4557565b60405162461bcd60e51b815260206004820152601e60248201527f53657373696f6e4e46543a2073657373696f6e206e6f742061637469766500006044820152606490fd5b5f19811461065d5760010190565b6001600160a01b0391821692909183156119a957815f52602092600284528260409583875f2054169533151580612c84575b5060029087612c53575b825f5260038152885f2060018154019055835f5252865f20816001600160601b0360a01b825416179055857fddf252ad1be2c89b69c2b068fc378daa952ba7f163c4a11628f55a4df523b3ef5f80a41692838303612c325750505050565b6064945051926364283d7b60e01b8452600484015260248301526044820152fd5b5f84815260046020526040812080546001600160a01b03191690558881526003825289902080545f19019055612bd4565b9192509080612cd5575b15612c9c579084915f612bca565b868587612cb9576024915190637e27328960e01b82526004820152fd5b604491519063177e802f60e01b82523360048301526024820152fd5b503386148015612cfa575b80612c8e5750845f52600481523384885f20541614612c8e565b50855f5260058152865f20335f52815260ff875f205416612ce0565b15612d1d57565b60405162461bcd60e51b815260206004820152601a60248201527f53657373696f6e4e46543a206e6f7420617574686f72697a65640000000000006044820152606490fd5b9190820391821161065d57565b60405190612d7c826129c6565b5f61016083828152826020820152826040820152606080820152606060808201528260a08201528260c08201528260e08201528261010082015282610120820152826101408201520152565b90604051612dd5816129c6565b61016060ff600a8395805485526001810154602086015260018060a01b036002820154166040860152612e0a60038201612a1e565b6060860152612e1b60048201612a1e565b6080860152600581015460a0860152600681015460c0860152600781015460e0860152600881015461010086015260098101546101208601520154818116151561014085015260081c161515910152565b5f52600a60205260405f2090600b60205260405f209060018060a01b03165f5260205260405f2090600182015480158015612f08575b612f015760038301549283159081612ef4575b5080612ee5575b612ecb575b5060070154111590565b819250612ede9060066007930154612d62565b9190612ec1565b5060ff600a8301541615612ebc565b600291500154155f612eb5565b5050505f90565b5060ff600484015416612ea2565b15612f1d57565b606460405162461bcd60e51b815260206004820152602060248201527f53657373696f6e4e46543a2073657373696f6e207374696c6c206163746976656044820152fd5b801561065d575f190190565b6001600160401b0381116105835760051b60200190565b80518210156112df5760209160051b010190565b5f92918154612fa681612973565b92600191808316908115612ffd5750600114612fc3575b50505050565b9091929394505f5260209060205f20905f915b858310612fec575050505001905f808080612fbd565b805485840152918301918101612fd6565b60ff191684525050508115159091020191505f808080612fbd565b5f805160206134af83398151915260028154146130355760029055565b604051633ee5aeb560e01b8152600490fd5b5f818152600260205260409020546001600160a01b0316908115613069575090565b60249060405190637e27328960e01b82526004820152fd5b6007546001600160a01b0316330361309557565b60405163118cdaa760e01b8152336004820152602490fd5b9293909193843b6130c0575b5050505050565b604051630a85bd0160e11b8082526001600160a01b039586166004830152938516602482015260448101919091526080606482015260209594909316939290859082908190613113906084830190612837565b03815f885af15f91816131b7575b50613180575050503d5f14613178573d9161313b83612ac0565b9261314960405194856129fd565b83523d5f8285013e5b8251928361317357604051633250574960e11b815260048101849052602490fd5b019050fd5b606091613152565b9193506001600160e01b03199091160361319f57505f808080806130b9565b60249060405190633250574960e11b82526004820152fd5b9091508581813d83116131f0575b6131cf81836129fd565b810103126106d557516001600160e01b0319811681036106d557905f613121565b503d6131c5565b805f917a184f03e93ff9f4daa797ed6e38ed64bf6a1f01000000000000000080821015613350575b506d04ee2d6d415b85acef810000000080831015613341575b50662386f26fc1000080831015613332575b506305f5e10080831015613323575b5061271080831015613314575b506064821015613304575b600a809210156132fa575b600190816021600186019561329087612ac0565b9661329e60405198896129fd565b8088526132ad601f1991612ac0565b01366020890137860101905b6132c5575b5050505090565b5f19019083906f181899199a1a9b1b9c1cb0b131b232b360811b8282061a8353049182156132f5579190826132b9565b6132be565b916001019161327c565b9190606460029104910191613271565b6004919392049101915f613266565b6008919392049101915f613259565b6010919392049101915f61324a565b6020919392049101915f613238565b60409350810491505f61321f565b9081518110156112df570160200190565b80511561349b57805191600280840180941161065d57600393849004600281901b91906001600160fe1b0381160361065d5793604051937f4142434445464748494a4b4c4d4e4f505152535455565758595a616263646566601f52603f917f6768696a6b6c6d6e6f707172737475767778797a303132333435363738392b2f603f5260208601928291835184019160208301998a51945f8c525b84811061345f5750505050509060039160209596975251068060011461344a5760021461343d575b50808452830101604052565b603d905f1901535f613431565b50603d90815f1982015360011901535f613431565b836004919c95989c019b838d51818160121c165183538181600c1c16516001840153818160061c1651858401531651858201530196939a613409565b506040516134a8816129e2565b5f81529056fe9b779b17422d0df92223018b32b4d1fa46e071723d6817e2486d003becc55f00a2646970667358221220bad1e7e7132a2f0866432a618052e854788d13750fef9dbca6332749f0db5d0d64736f6c63430008180033","linkReferences":{}},"methodIdentifiers":{"approve(address,uint256)":"095ea7b3","attendance(uint256,address)":"100bff20","authorizeCreator(address)":"d8625b07","authorizedCreators(address)":"c695502a","balanceOf(address)":"70a08231","claimSessionNFT(uint256)":"8a2ae699","closeMinting(uint256)":"628d35c9","createSession(uint256,string,string,uint256,uint256)":"fe282596","endSession(uint256)":"26cc5583","getActiveSessions(uint256)":"7334716d","getApproved(uint256)":"081812fc","getAttendance(uint256,address)":"e1b1aaeb","getSession(uint256)":"402ff0db","getSessionAttendees(uint256)":"2517ef3f","getUserSessionNFTs(address)":"bd8daecd","isApprovedForAll(address,address)":"e985e9c5","isEligible(uint256,address)":"592e0e00","joinSession(uint256)":"05991eba","leaveSession(uint256)":"4f904f00","name()":"06fdde03","owner()":"8da5cb5b","ownerOf(uint256)":"6352211e","renounceOwnership()":"715018a6","revokeCreator(address)":"c0e69af6","safeTransferFrom(address,address,uint256)":"42842e0e","safeTransferFrom(address,address,uint256,bytes)":"b88d4fde","sessionAttendees(uint256,uint256)":"c9151d44","sessionCount()":"73cd8336","sessions(uint256)":"83c4b7a3","setApprovalForAll(address,bool)":"a22cb465","supportsInterface(bytes4)":"01ffc9a7","symbol()":"95d89b41","tokenCount()":"9f181b5e","tokenToSession(uint256)":"e17d53a8","tokenURI(uint256)":"c87b56dd","totalAttendees()":"0a5d288c","totalNFTsMinted()":"4eb7e95f","transferFrom(address,address,uint256)":"23b872dd","transferOwnership(address)":"f2fde38b","userSessionNFTs(address,uint256)":"4ce02835"},"id":74}