{"abi":[{"type":"constructor","inputs":[{"name":"_radioToken","type":"address","internalType":"address"},{"name":"_treasury","type":"address","internalType":"address"}],"stateMutability":"nonpayable"},{"type":"function","name":"cancelAutoRenew","inputs":[{"name":"station","type":"address","internalType":"address"}],"outputs":[],"stateMutability":"nonpayable"},{"type":"function","name":"configureStation","inputs":[{"name":"station","type":"address","internalType":"address"},{"name":"djTier","type":"uint8","internalType":"enum SubscriptionManager.DJTier"},{"name":"basicFee","type":"uint256","internalType":"uint256"},{"name":"premiumFee","type":"uint256","internalType":"uint256"},{"name":"vipFee","type":"uint256","internalType":"uint256"}],"outputs":[],"stateMutability":"nonpayable"},{"type":"function","name":"djTips","inputs":[{"name":"","type":"address","internalType":"address"},{"name":"","type":"uint256","internalType":"uint256"}],"outputs":[{"name":"tipper","type":"address","internalType":"address"},{"name":"dj","type":"address","internalType":"address"},{"name":"station","type":"address","internalType":"address"},{"name":"amount","type":"uint256","internalType":"uint256"},{"name":"timestamp","type":"uint256","internalType":"uint256"},{"name":"message","type":"string","internalType":"string"}],"stateMutability":"view"},{"type":"function","name":"getDJTips","inputs":[{"name":"dj","type":"address","internalType":"address"},{"name":"limit","type":"uint256","internalType":"uint256"}],"outputs":[{"name":"","type":"tuple[]","internalType":"struct SubscriptionManager.TipRecord[]","components":[{"name":"tipper","type":"address","internalType":"address"},{"name":"dj","type":"address","internalType":"address"},{"name":"station","type":"address","internalType":"address"},{"name":"amount","type":"uint256","internalType":"uint256"},{"name":"timestamp","type":"uint256","internalType":"uint256"},{"name":"message","type":"string","internalType":"string"}]}],"stateMutability":"view"},{"type":"function","name":"getRevenueSplit","inputs":[{"name":"tier","type":"uint8","internalType":"enum SubscriptionManager.DJTier"}],"outputs":[{"name":"djPercent","type":"uint256","internalType":"uint256"},{"name":"treasuryPercent","type":"uint256","internalType":"uint256"}],"stateMutability":"pure"},{"type":"function","name":"getStationTips","inputs":[{"name":"station","type":"address","internalType":"address"},{"name":"limit","type":"uint256","internalType":"uint256"}],"outputs":[{"name":"","type":"tuple[]","internalType":"struct SubscriptionManager.TipRecord[]","components":[{"name":"tipper","type":"address","internalType":"address"},{"name":"dj","type":"address","internalType":"address"},{"name":"station","type":"address","internalType":"address"},{"name":"amount","type":"uint256","internalType":"uint256"},{"name":"timestamp","type":"uint256","internalType":"uint256"},{"name":"message","type":"string","internalType":"string"}]}],"stateMutability":"view"},{"type":"function","name":"getSubscription","inputs":[{"name":"user","type":"address","internalType":"address"},{"name":"station","type":"address","internalType":"address"}],"outputs":[{"name":"","type":"tuple","internalType":"struct SubscriptionManager.Subscription","components":[{"name":"subscriber","type":"address","internalType":"address"},{"name":"station","type":"address","internalType":"address"},{"name":"tier","type":"uint8","internalType":"enum SubscriptionManager.SubscriptionTier"},{"name":"startTime","type":"uint256","internalType":"uint256"},{"name":"endTime","type":"uint256","internalType":"uint256"},{"name":"amountPaid","type":"uint256","internalType":"uint256"},{"name":"autoRenew","type":"bool","internalType":"bool"}]}],"stateMutability":"view"},{"type":"function","name":"getSubscriptionTier","inputs":[{"name":"user","type":"address","internalType":"address"},{"name":"station","type":"address","internalType":"address"}],"outputs":[{"name":"","type":"uint8","internalType":"enum SubscriptionManager.SubscriptionTier"},{"name":"","type":"bool","internalType":"bool"}],"stateMutability":"view"},{"type":"function","name":"isSubscribed","inputs":[{"name":"user","type":"address","internalType":"address"},{"name":"station","type":"address","internalType":"address"}],"outputs":[{"name":"","type":"bool","internalType":"bool"}],"stateMutability":"view"},{"type":"function","name":"owner","inputs":[],"outputs":[{"name":"","type":"address","internalType":"address"}],"stateMutability":"view"},{"type":"function","name":"radioToken","inputs":[],"outputs":[{"name":"","type":"address","internalType":"contract IERC20"}],"stateMutability":"view"},{"type":"function","name":"renewSubscription","inputs":[{"name":"station","type":"address","internalType":"address"},{"name":"months","type":"uint256","internalType":"uint256"}],"outputs":[],"stateMutability":"nonpayable"},{"type":"function","name":"renounceOwnership","inputs":[],"outputs":[],"stateMutability":"nonpayable"},{"type":"function","name":"setTreasury","inputs":[{"name":"newTreasury","type":"address","internalType":"address"}],"outputs":[],"stateMutability":"nonpayable"},{"type":"function","name":"stationConfigs","inputs":[{"name":"","type":"address","internalType":"address"}],"outputs":[{"name":"owner","type":"address","internalType":"address"},{"name":"djTier","type":"uint8","internalType":"enum SubscriptionManager.DJTier"},{"name":"basicFee","type":"uint256","internalType":"uint256"},{"name":"premiumFee","type":"uint256","internalType":"uint256"},{"name":"vipFee","type":"uint256","internalType":"uint256"},{"name":"acceptsSubscriptions","type":"bool","internalType":"bool"}],"stateMutability":"view"},{"type":"function","name":"stationRevenue","inputs":[{"name":"","type":"address","internalType":"address"}],"outputs":[{"name":"","type":"uint256","internalType":"uint256"}],"stateMutability":"view"},{"type":"function","name":"stationSubscribers","inputs":[{"name":"","type":"address","internalType":"address"},{"name":"","type":"uint256","internalType":"uint256"}],"outputs":[{"name":"","type":"address","internalType":"address"}],"stateMutability":"view"},{"type":"function","name":"stationTips","inputs":[{"name":"","type":"address","internalType":"address"},{"name":"","type":"uint256","internalType":"uint256"}],"outputs":[{"name":"tipper","type":"address","internalType":"address"},{"name":"dj","type":"address","internalType":"address"},{"name":"station","type":"address","internalType":"address"},{"name":"amount","type":"uint256","internalType":"uint256"},{"name":"timestamp","type":"uint256","internalType":"uint256"},{"name":"message","type":"string","internalType":"string"}],"stateMutability":"view"},{"type":"function","name":"subscribe","inputs":[{"name":"station","type":"address","internalType":"address"},{"name":"tier","type":"uint8","internalType":"enum SubscriptionManager.SubscriptionTier"},{"name":"months","type":"uint256","internalType":"uint256"},{"name":"autoRenew","type":"bool","internalType":"bool"}],"outputs":[],"stateMutability":"nonpayable"},{"type":"function","name":"subscriptions","inputs":[{"name":"","type":"address","internalType":"address"},{"name":"","type":"address","internalType":"address"}],"outputs":[{"name":"subscriber","type":"address","internalType":"address"},{"name":"station","type":"address","internalType":"address"},{"name":"tier","type":"uint8","internalType":"enum SubscriptionManager.SubscriptionTier"},{"name":"startTime","type":"uint256","internalType":"uint256"},{"name":"endTime","type":"uint256","internalType":"uint256"},{"name":"amountPaid","type":"uint256","internalType":"uint256"},{"name":"autoRenew","type":"bool","internalType":"bool"}],"stateMutability":"view"},{"type":"function","name":"tip","inputs":[{"name":"dj","type":"address","internalType":"address"},{"name":"station","type":"address","internalType":"address"},{"name":"amount","type":"uint256","internalType":"uint256"},{"name":"message","type":"string","internalType":"string"}],"outputs":[],"stateMutability":"nonpayable"},{"type":"function","name":"totalSubscriptions","inputs":[],"outputs":[{"name":"","type":"uint256","internalType":"uint256"}],"stateMutability":"view"},{"type":"function","name":"totalTipAmount","inputs":[],"outputs":[{"name":"","type":"uint256","internalType":"uint256"}],"stateMutability":"view"},{"type":"function","name":"totalTips","inputs":[],"outputs":[{"name":"","type":"uint256","internalType":"uint256"}],"stateMutability":"view"},{"type":"function","name":"totalTipsReceived","inputs":[{"name":"","type":"address","internalType":"address"}],"outputs":[{"name":"","type":"uint256","internalType":"uint256"}],"stateMutability":"view"},{"type":"function","name":"transferOwnership","inputs":[{"name":"newOwner","type":"address","internalType":"address"}],"outputs":[],"stateMutability":"nonpayable"},{"type":"function","name":"treasury","inputs":[],"outputs":[{"name":"","type":"address","internalType":"address"}],"stateMutability":"view"},{"type":"function","name":"updateDJTier","inputs":[{"name":"station","type":"address","internalType":"address"},{"name":"newTier","type":"uint8","internalType":"enum SubscriptionManager.DJTier"}],"outputs":[],"stateMutability":"nonpayable"},{"type":"function","name":"userSubscriptions","inputs":[{"name":"","type":"address","internalType":"address"},{"name":"","type":"uint256","internalType":"uint256"}],"outputs":[{"name":"","type":"address","internalType":"address"}],"stateMutability":"view"},{"type":"event","name":"OwnershipTransferred","inputs":[{"name":"previousOwner","type":"address","indexed":true,"internalType":"address"},{"name":"newOwner","type":"address","indexed":true,"internalType":"address"}],"anonymous":false},{"type":"event","name":"RevenueDistributed","inputs":[{"name":"recipient","type":"address","indexed":true,"internalType":"address"},{"name":"djAmount","type":"uint256","indexed":false,"internalType":"uint256"},{"name":"treasuryAmount","type":"uint256","indexed":false,"internalType":"uint256"}],"anonymous":false},{"type":"event","name":"StationConfigured","inputs":[{"name":"station","type":"address","indexed":true,"internalType":"address"},{"name":"owner","type":"address","indexed":true,"internalType":"address"},{"name":"basicFee","type":"uint256","indexed":false,"internalType":"uint256"},{"name":"premiumFee","type":"uint256","indexed":false,"internalType":"uint256"},{"name":"vipFee","type":"uint256","indexed":false,"internalType":"uint256"}],"anonymous":false},{"type":"event","name":"SubscriptionCancelled","inputs":[{"name":"subscriber","type":"address","indexed":true,"internalType":"address"},{"name":"station","type":"address","indexed":true,"internalType":"address"}],"anonymous":false},{"type":"event","name":"SubscriptionCreated","inputs":[{"name":"subscriber","type":"address","indexed":true,"internalType":"address"},{"name":"station","type":"address","indexed":true,"internalType":"address"},{"name":"tier","type":"uint8","indexed":false,"internalType":"enum SubscriptionManager.SubscriptionTier"},{"name":"endTime","type":"uint256","indexed":false,"internalType":"uint256"},{"name":"amount","type":"uint256","indexed":false,"internalType":"uint256"}],"anonymous":false},{"type":"event","name":"SubscriptionRenewed","inputs":[{"name":"subscriber","type":"address","indexed":true,"internalType":"address"},{"name":"station","type":"address","indexed":true,"internalType":"address"},{"name":"newEndTime","type":"uint256","indexed":false,"internalType":"uint256"},{"name":"amount","type":"uint256","indexed":false,"internalType":"uint256"}],"anonymous":false},{"type":"event","name":"TipSent","inputs":[{"name":"tipper","type":"address","indexed":true,"internalType":"address"},{"name":"dj","type":"address","indexed":true,"internalType":"address"},{"name":"station","type":"address","indexed":true,"internalType":"address"},{"name":"amount","type":"uint256","indexed":false,"internalType":"uint256"},{"name":"message","type":"string","indexed":false,"internalType":"string"}],"anonymous":false},{"type":"error","name":"OwnableInvalidOwner","inputs":[{"name":"owner","type":"address","internalType":"address"}]},{"type":"error","name":"OwnableUnauthorizedAccount","inputs":[{"name":"account","type":"address","internalType":"address"}]},{"type":"error","name":"ReentrancyGuardReentrantCall","inputs":[]}],"bytecode":{"object":"0x60a034620001de57620023d190601f38839003908101601f19168201906001600160401b03821183831017620001e25780839160409586948552833981010312620001de576200005d60206200005583620001f6565b9201620001f6565b903315620001c7575f549160018060a01b03908160018060a01b03199333858716175f55865195823391167f8be0079c531659141344cd1fd0a4f28419497f9722a3daafe3b4186f6b6457e05f80a360017f9b779b17422d0df92223018b32b4d1fa46e071723d6817e2486d003becc55f0055169384156200017a57501691821562000128576080526001541617600155516121c590816200020c82396080518181816103750152818161071f015281816107ba0152818161083401528181610b5201526112520152f35b835162461bcd60e51b815260206004820152602560248201527f537562736372697074696f6e4d616e616765723a20696e76616c696420747265604482015264617375727960d81b6064820152608490fd5b62461bcd60e51b815260206004820152602260248201527f537562736372697074696f6e4d616e616765723a20696e76616c696420746f6b60448201526132b760f11b6064820152608490fd5b8251631e4fbdf760e01b81525f6004820152602490fd5b5f80fd5b634e487b7160e01b5f52604160045260245ffd5b51906001600160a01b0382168203620001de5756fe60806040526004361015610011575f80fd5b5f3560e01c806304ac5a921461177357806310ec8bbe1461172c5780631328b8701461170f5780633078f03f146116c85780633196e505146116255780633939dfd1146115aa5780634c0cc7c6146111b85780634d29aa981461114c5780635b75dd8d1461102957806361d027b3146110015780636207d31b14610f5e5780636ebee41814610e6e578063715018a614610e1757806375e0addb14610ddf5780638da5cb5b14610db857806390f42dc114610d3757806392e6a84d14610d1a578063990de8ae14610cfd5780639b67870914610cc9578063b1ddc64c14610c47578063b39c5e0114610b81578063bfd340bc14610b3d578063c55dea8014610683578063c95d6edc1461062c578063cd34d1e9146105f4578063e25b4995146102ce578063f0f4426014610234578063f2fde38b146101af5763f6416ef614610158575f80fd5b346101ab5760403660031901126101ab576101716117df565b6101796117f5565b9060018060a01b038091165f52600360205260405f2091165f526020526020600360405f200154604051904211158152f35b5f80fd5b346101ab5760203660031901126101ab576101c86117df565b6101d061210b565b6001600160a01b0390811690811561021c575f54826001600160601b0360a01b8216175f55167f8be0079c531659141344cd1fd0a4f28419497f9722a3daafe3b4186f6b6457e05f80a3005b604051631e4fbdf760e01b81525f6004820152602490fd5b346101ab5760203660031901126101ab5761024d6117df565b61025561210b565b6001600160a01b0316801561027b576001600160601b0360a01b60015416176001555f80f35b60405162461bcd60e51b815260206004820152602560248201527f537562736372697074696f6e4d616e616765723a20696e76616c696420747265604482015264617375727960d81b6064820152608490fd5b346101ab5760403660031901126101ab576102e76117df565b602435906102f3612080565b81158015806105e9575b61030690611fd8565b335f526020926003845260405f209060018060a01b0380941691825f52855260405f2093610338818654161515611c5d565b825f526002865260405f206103608361035b60ff60018a015460a01c1684612136565b612032565b6040516370a0823160e01b81523360048201527f0000000000000000000000000000000000000000000000000000000000000000841695919089816024818a5afa80156105905782905f906105b8575b6103bc92501015611cb5565b8254946103cf60ff8760a01c16836120af565b6040516323b872dd60e01b8082523360048301529888166001600160a01b03166024820152604481018390529198909791908c826064815f855af1908115610590576104639361042a8f94938c945f9161059b575b50611d2b565b6001546040519182523360048301528a166001600160a01b031660248201526044810192909252909283919082905f9082906064820190565b03925af180156105905761047e915f91610563575b50611d87565b600389019081544281115f1461055b57985b62278d00808302928304141715610547577f23c66d89e0135aaea90eae0a65f26e5ce7b564834613ad71f4c7ff723354f13e996104d160049260409b611f82565b8355016104df838254611f82565b9055825f5260098a52875f206104f6838254611f82565b905554908751918252898201527f912b43ef56adb4965a19e2a89e582b970c0c0d50c8c0155dc1ac7c44be6c2745873392a35416948351928352820152a260015f8051602061217083398151915255005b634e487b7160e01b5f52601160045260245ffd5b504298610490565b61058391508c8d3d10610589575b61057b81836118d1565b810190611d13565b8c610478565b503d610571565b6040513d5f823e3d90fd5b6105b29150863d88116105895761057b81836118d1565b5f610424565b50508981813d83116105e2575b6105cf81836118d1565b810103126101ab57816103bc91516103b0565b503d6105c5565b50600c8311156102fd565b346101ab5760203660031901126101ab576001600160a01b036106156117df565b165f526008602052602060405f2054604051908152f35b346101ab5760403660031901126101ab576106456117df565b6024359060018060a01b038091165f52600560205260405f2080548310156101ab576020926106739161180b565b9190546040519260031b1c168152f35b346101ab5760803660031901126101ab5761069c6117df565b600360243510156101ab5760643580151581036101ab576106bb612080565b604435151580610b30575b6106cf90611fd8565b60018060a01b0382165f52600260205260405f209160ff60048401541615610ad25761070360443561035b60243586612136565b6040516370a0823160e01b8152336004820152936020856024817f00000000000000000000000000000000000000000000000000000000000000006001600160a01b03165afa948515610590575f95610a9c575b50610766826020961015611cb5565b8054916107b561077c60ff8560a01c16836120af565b6040516323b872dd60e01b81523360048201526001600160a01b0390961660248701526044860182905297909491829081906064820190565b03815f7f00000000000000000000000000000000000000000000000000000000000000006001600160a01b03165af18015610590576107fa915f91610a7d5750611d2b565b6001546040516323b872dd60e01b81523360048201526001600160a01b03909116602482015260448101879052602081806064810103815f7f00000000000000000000000000000000000000000000000000000000000000006001600160a01b03165af1801561059057610874915f91610a5e5750611d87565b335f52600360205260405f2060018060a01b0385165f5260205260405f209360038501544281115f14610a5657915b62278d00968760443502976044358904146044351517156105475760056040976108ee7f23c66d89e0135aaea90eae0a65f26e5ce7b564834613ad71f4c7ff723354f13e9a87611f82565b81549096906001600160a01b038116156109f1575b5060018201610913602435611abd565b805460ff60a01b191660243560a01b60ff60a01b16179055600282015560038101869055600481018054610948908690611f82565b9055019060ff80198354169115151617905560018060a01b0382165f526009602052855f20610978828254611f82565b9055855192610988602435611abd565b60243584526020840152858301526001600160a01b03169033907f0d829b77725cf71910e7007adc39fcf59a5f19b3ab5930f8a7282226a494e50890606090a360018060a01b039054169382519182526020820152a260015f8051602061217083398151915255005b336001600160a01b0319918216811784556001840180546001600160a01b038a169316831790555f9182526004602052908b9020610a2f9190612045565b335f5282602052610a42868b5f20612045565b610a4d600a54611f8f565b600a558c610903565b5042916108a3565b610a77915060203d6020116105895761057b81836118d1565b88610478565b610a96915060203d6020116105895761057b81836118d1565b88610424565b94506020853d602011610aca575b81610ab7602093836118d1565b810103126101ab57935193610766610757565b3d9150610aaa565b60405162461bcd60e51b815260206004820152603060248201527f537562736372697074696f6e4d616e616765723a206e6f74206163636570746960448201526f6e6720737562736372697074696f6e7360801b6064820152608490fd5b50600c60443511156106c6565b346101ab575f3660031901126101ab576040517f00000000000000000000000000000000000000000000000000000000000000006001600160a01b03168152602090f35b346101ab5760403660031901126101ab57610b9a6117df565b6001600160a01b03165f9081526007602052604090208054602491823582811115610c415750815b610bcb83611b6f565b935f1982019182115f5b858110610bee5760405180610bea8982611a13565b0390f35b81610c2e5780610c12610c0c610c0660019488611be4565b88611834565b50611c05565b610c1c828a611bf1565b52610c278189611bf1565b5001610bd5565b82634e487b7160e01b5f5260116004525ffd5b91610bc2565b346101ab5760403660031901126101ab57610c606117df565b6001600160a01b039081165f9081526006602052604090208054602435908110156101ab57610c8e91611834565b50610bea82825416918360018201541693600282015416906003810154610cbc6005600484015493016118f3565b92604051968796876119d3565b346101ab5760203660031901126101ab5760043560038110156101ab57610cf1604091611f9d565b82519182526020820152f35b346101ab575f3660031901126101ab576020600b54604051908152f35b346101ab575f3660031901126101ab576020600c54604051908152f35b346101ab5760203660031901126101ab5760c06001600160a01b0380610d5b6117df565b165f52600260205260405f209081549160ff8360a01c16600182015460028301549160ff60046003860154950154169460405196168652610d9b81611abd565b6020860152604085015260608401526080830152151560a0820152f35b346101ab575f3660031901126101ab575f546040516001600160a01b039091168152602090f35b346101ab5760203660031901126101ab576001600160a01b03610e006117df565b165f526009602052602060405f2054604051908152f35b346101ab575f3660031901126101ab57610e2f61210b565b5f80546001600160a01b0319811682556001600160a01b03167f8be0079c531659141344cd1fd0a4f28419497f9722a3daafe3b4186f6b6457e08280a3005b346101ab5760a03660031901126101ab57610e876117df565b60243560038110156101ab5760443591606435600460843592610ef160018060a01b0380921695865f52600260205260405f2092610edd845491808316908115918215610f54575b508115610f47575b50611adb565b6001600160a01b0319163317835582611b33565b85600182015582600282015583600382015501600160ff19825416179055604051938452602084015260408301527f728e1164a83cadb6ade06fefc24385a3a3af5e8230900baa13457b208465778d60603393a3005b90505f541633148b610ed7565b331491508c610ecf565b346101ab5760403660031901126101ab5760e0610f796117df565b610f816117f5565b60018060a01b038092165f5260036020528160405f2091165f5260205260405f2090808254169160018101549160ff8360a01c1660028301549060038401549260ff600560048701549601541695604051978852166020870152610fe481611abd565b60408601526060850152608084015260a0830152151560c0820152f35b346101ab575f3660031901126101ab576001546040516001600160a01b039091168152602090f35b346101ab5760403660031901126101ab5760e06110446117df565b61104c6117f5565b5f60c060405161105b816118b5565b8281528260208201528260408201528260608201528260808201528260a0820152015260018060a01b038092165f5260036020528160405f2091165f5260205260405f2090604051916110ad836118b5565b81815416835260018101549160ff6020850193828116855260a01c1660408501906110d781611abd565b8152600283015490606086019182526003840154926080870193845260ff600560048701549660a08a019788520154169560c088019615158752816040519851168852511660208701525161112b81611abd565b60408601525160608501525160808401525160a083015251151560c0820152f35b346101ab5760403660031901126101ab576111656117df565b61116d6117f5565b9060018060a01b038091165f52600360205260405f2091165f526020526040805f2060ff6001600383015492015460a01c16908251916111ac81611abd565b82524211156020820152f35b346101ab5760803660031901126101ab576111d16117df565b6111d96117f5565b90604435906064359067ffffffffffffffff8083116101ab57366023840112156101ab5782600401359081116101ab57602483019260248236920101116101ab57611222612080565b6001600160a01b03828116959091908615611565578515611514576040516370a0823160e01b81523360048201527f0000000000000000000000000000000000000000000000000000000000000000841694602093909184816024818a5afa80156105905789905f906114e3575b61129c92501015611cb5565b6112bf855f941693845f526002865260405f20548781166114d5575b50896120af565b6040516323b872dd60e01b8082523360048301526001600160a01b039590951660248201526044810183905291979096919086826064815f855af1948515610590575f889461131961134d988c9684916114be5750611d2b565b600154604051938452336004850152166001600160a01b031660248301526044820193909352948592839182906064820190565b03925af18015610590577f23c66d89e0135aaea90eae0a65f26e5ce7b564834613ad71f4c7ff723354f13e985f606084829560409c8f987f24210d764575f2bea2653ee4bf020b5082470a3a4461009adc583ec7f184ca3b976113b69187916114a15750611d87565b61142e8e516113c481611885565b3381528c81018b90528f81018c9052858101889052426080820152604051601f8501601f19169a8e6113f88d8201846118d1565b868352868682850137868301015260a08201528b875260068d528f8161141f918920611de9565b8a875260078d528f8720611de9565b88855260088b528c6114448f8720918254611f82565b9055611451600b54611f8f565b600b5561146086600c54611f82565b600c558d519586528d8b870152818e870152838601378301015260608133948101030190a48351928352820152a260015f8051602061217083398151915255005b6114b891508d803d106105895761057b81836118d1565b5f610478565b6105b29150883d8a116105895761057b81836118d1565b60ff915060a01c168b6112b8565b50508481813d831161150d575b6114fa81836118d1565b810103126101ab578861129c9151611290565b503d6114f0565b60405162461bcd60e51b815260206004820152602360248201527f537562736372697074696f6e4d616e616765723a20696e76616c696420616d6f6044820152621d5b9d60ea1b6064820152608490fd5b60405162461bcd60e51b815260206004820152601f60248201527f537562736372697074696f6e4d616e616765723a20696e76616c696420444a006044820152606490fd5b346101ab5760203660031901126101ab576115c36117df565b335f526003602052600560405f209160018060a01b0380911692835f526020526115f560405f20918254161515611c5d565b01805460ff19169055337f4f63ff9c987ba9233a93b549bdb283252838f696fe1349ef76a85e2ae7f822e35f80a3005b346101ab5760403660031901126101ab5761163e6117df565b6001600160a01b03165f90815260066020526040902080546024918235828111156116c25750815b61166f83611b6f565b935f1982019182115f5b85811061168e5760405180610bea8982611a13565b81610c2e57806116a6610c0c610c0660019488611be4565b6116b0828a611bf1565b526116bb8189611bf1565b5001611679565b91611666565b346101ab5760403660031901126101ab576116e16117df565b6001600160a01b039081165f9081526007602052604090208054602435908110156101ab57610c8e91611834565b346101ab575f3660031901126101ab576020600a54604051908152f35b346101ab5760403660031901126101ab576117456117df565b6024359060018060a01b038091165f52600460205260405f2080548310156101ab576020926106739161180b565b346101ab5760403660031901126101ab5761178c6117df565b60243560038110156101ab576001600160a01b039182165f90815260026020526040902080546117d0936117cb91811633149081156117d25750611adb565b611b33565b005b90505f5416331485610ed7565b600435906001600160a01b03821682036101ab57565b602435906001600160a01b03821682036101ab57565b8054821015611820575f5260205f2001905f90565b634e487b7160e01b5f52603260045260245ffd5b8054821015611820575f52600660205f20910201905f90565b90600182811c9216801561187b575b602083101461186757565b634e487b7160e01b5f52602260045260245ffd5b91607f169161185c565b60c0810190811067ffffffffffffffff8211176118a157604052565b634e487b7160e01b5f52604160045260245ffd5b60e0810190811067ffffffffffffffff8211176118a157604052565b90601f8019910116810190811067ffffffffffffffff8211176118a157604052565b9060405191825f82546119058161184d565b908184526020946001916001811690815f146119735750600114611935575b505050611933925003836118d1565b565b5f90815285812095935091905b81831061195b57505061193393508201015f8080611924565b85548884018501529485019487945091830191611942565b9250505061193394925060ff191682840152151560051b8201015f8080611924565b91908251928382525f5b8481106119bf575050825f602080949584010152601f8019910116010190565b60208183018101518483018201520161199f565b9291611a1096959260c0959260018060a01b0392838092168752166020860152166040840152606083015260808201528160a08201520190611995565b90565b6020808201908083528351809252604092604081018260408560051b8401019601945f925b858410611a49575050505050505090565b909192939495968580611aac600193603f198682030188528b519060c090868060a01b038084511682528086850151168683015289840151168982015260608084015190820152608080840151908201528160a080940151938201520190611995565b990194019401929594939190611a38565b60031115611ac757565b634e487b7160e01b5f52602160045260245ffd5b15611ae257565b60405162461bcd60e51b815260206004820152602360248201527f537562736372697074696f6e4d616e616765723a206e6f7420617574686f72696044820152621e995960ea1b6064820152608490fd5b90611b3d81611abd565b815460ff60a01b191660a09190911b60ff60a01b16179055565b67ffffffffffffffff81116118a15760051b60200190565b90611b7982611b57565b604090611b8960405191826118d1565b8381528093611b9a601f1991611b57565b01915f5b838110611bab5750505050565b6020908251611bb981611885565b5f8152825f818301525f8583015260605f818401525f608084015260a0830152828601015201611b9e565b9190820391821161054757565b80518210156118205760209160051b010190565b90604051611c1281611885565b60a0611c5860058395600180851b0380825416865280600183015416602087015260028201541660408601526003810154606086015260048101546080860152016118f3565b910152565b15611c6457565b60405162461bcd60e51b8152602060048201526024808201527f537562736372697074696f6e4d616e616765723a206e6f2073756273637269706044820152633a34b7b760e11b6064820152608490fd5b15611cbc57565b60405162461bcd60e51b815260206004820152602960248201527f537562736372697074696f6e4d616e616765723a20696e73756666696369656e604482015268742062616c616e636560b81b6064820152608490fd5b908160209103126101ab575180151581036101ab5790565b15611d3257565b60405162461bcd60e51b815260206004820152602760248201527f537562736372697074696f6e4d616e616765723a20444a207472616e736665726044820152660819985a5b195960ca1b6064820152608490fd5b15611d8e57565b60405162461bcd60e51b815260206004820152602d60248201527f537562736372697074696f6e4d616e616765723a20747265617375727920747260448201526c185b9cd9995c8819985a5b1959609a1b6064820152608490fd5b8054600160401b8110156118a157611e08906001928382018155611834565b611f6f5760a06005600180831b039283865116936001600160601b03841b94858354161782558582019460209582878a015116828254161790556002830191604089015116908254161790556060860151600382015560808601516004820155019301519081519167ffffffffffffffff83116118a157611e89855461184d565b601f8111611f29575b5081601f8411600114611eca57509282939183925f94611ebf575b50501b915f199060031b1c1916179055565b015192505f80611ead565b919083601f198116875f52845f20945f905b88838310611f0f5750505010611ef7575b505050811b019055565b01515f1960f88460031b161c191690555f8080611eed565b858701518855909601959485019487935090810190611edc565b855f52825f20601f850160051c810191848610611f65575b601f0160051c019085905b828110611f5a575050611e92565b5f8155018590611f4c565b9091508190611f41565b634e487b7160e01b5f525f60045260245ffd5b9190820180921161054757565b5f1981146105475760010190565b611fa681611abd565b60028103611fb75750605090601490565b80611fc3600192611abd565b03611fd057604690601e90565b603c90602890565b15611fdf57565b60405162461bcd60e51b815260206004820152602560248201527f537562736372697074696f6e4d616e616765723a20696e76616c69642064757260448201526430ba34b7b760d91b6064820152608490fd5b8181029291811591840414171561054757565b8054600160401b8110156118a1576120629160018201815561180b565b60018060a09493941b038084549260031b9316831b921b1916179055565b5f80516020612170833981519152600281541461209d5760029055565b604051633ee5aeb560e01b8152600490fd5b91906120ba81611abd565b600281036120dc5750611a1060646120d460505b85612032565b048093611be4565b806120e8600192611abd565b036120fc57611a1060646120d460466120ce565b611a1060646120d4603c6120ce565b5f546001600160a01b0316330361211e57565b60405163118cdaa760e01b8152336004820152602490fd5b9061214081611abd565b6002810361215057506003015490565b8061215c600192611abd565b03612168576002015490565b600101549056fe9b779b17422d0df92223018b32b4d1fa46e071723d6817e2486d003becc55f00a2646970667358221220436ae088dbd0201c79dfeaf96eb941be3b8017827fb1d5c96b6a2f7970566e9a64736f6c63430008180033","linkReferences":{}},"methodIdentifiers":{"cancelAutoRenew(address)":"3939dfd1","configureStation(address,uint8,uint256,uint256,uint256)":"6ebee418","djTips(address,uint256)":"3078f03f","getDJTips(address,uint256)":"b39c5e01","getRevenueSplit(uint8)":"9b678709","getStationTips(address,uint256)":"3196e505","getSubscription(address,address)":"5b75dd8d","getSubscriptionTier(address,address)":"4d29aa98","isSubscribed(address,address)":"f6416ef6","owner()":"8da5cb5b","radioToken()":"bfd340bc","renewSubscription(address,uint256)":"e25b4995","renounceOwnership()":"715018a6","setTreasury(address)":"f0f44260","stationConfigs(address)":"90f42dc1","stationRevenue(address)":"75e0addb","stationSubscribers(address,uint256)":"10ec8bbe","stationTips(address,uint256)":"b1ddc64c","subscribe(address,uint8,uint256,bool)":"c55dea80","subscriptions(address,address)":"6207d31b","tip(address,address,uint256,string)":"4c0cc7c6","totalSubscriptions()":"1328b870","totalTipAmount()":"92e6a84d","totalTips()":"990de8ae","totalTipsReceived(address)":"cd34d1e9","transferOwnership(address)":"f2fde38b","treasury()":"61d027b3","updateDJTier(address,uint8)":"04ac5a92","userSubscriptions(address,uint256)":"c95d6edc"},"id":79}