{"abi":[{"type":"constructor","inputs":[{"name":"_vibesToken","type":"address","internalType":"address"},{"name":"_treasury","type":"address","internalType":"address"}],"stateMutability":"nonpayable"},{"type":"function","name":"FREQUENCY_420","inputs":[],"outputs":[{"name":"","type":"uint256","internalType":"uint256"}],"stateMutability":"view"},{"type":"function","name":"MIN_EARN_TIME","inputs":[],"outputs":[{"name":"","type":"uint256","internalType":"uint256"}],"stateMutability":"view"},{"type":"function","name":"activeParticipants","inputs":[{"name":"","type":"uint256","internalType":"uint256"}],"outputs":[{"name":"","type":"address","internalType":"address"}],"stateMutability":"view"},{"type":"function","name":"claimVibes","inputs":[],"outputs":[],"stateMutability":"nonpayable"},{"type":"function","name":"communityMood","inputs":[],"outputs":[{"name":"","type":"uint8","internalType":"enum Zone420.Mood"}],"stateMutability":"view"},{"type":"function","name":"currentSessionId","inputs":[],"outputs":[{"name":"","type":"uint256","internalType":"uint256"}],"stateMutability":"view"},{"type":"function","name":"end420Event","inputs":[],"outputs":[],"stateMutability":"nonpayable"},{"type":"function","name":"eventMultiplier","inputs":[],"outputs":[{"name":"","type":"uint256","internalType":"uint256"}],"stateMutability":"view"},{"type":"function","name":"getActiveParticipantCount","inputs":[],"outputs":[{"name":"","type":"uint256","internalType":"uint256"}],"stateMutability":"view"},{"type":"function","name":"getActiveParticipants","inputs":[{"name":"limit","type":"uint256","internalType":"uint256"},{"name":"offset","type":"uint256","internalType":"uint256"}],"outputs":[{"name":"","type":"address[]","internalType":"address[]"}],"stateMutability":"view"},{"type":"function","name":"getMoodDistribution","inputs":[],"outputs":[{"name":"","type":"uint256[5]","internalType":"uint256[5]"}],"stateMutability":"view"},{"type":"function","name":"getParticipant","inputs":[{"name":"user","type":"address","internalType":"address"}],"outputs":[{"name":"","type":"tuple","internalType":"struct Zone420.Participant","components":[{"name":"user","type":"address","internalType":"address"},{"name":"joinTime","type":"uint256","internalType":"uint256"},{"name":"lastVibesEarned","type":"uint256","internalType":"uint256"},{"name":"totalVibesEarned","type":"uint256","internalType":"uint256"},{"name":"currentMood","type":"uint8","internalType":"enum Zone420.Mood"},{"name":"sessionCount","type":"uint256","internalType":"uint256"}]}],"stateMutability":"view"},{"type":"function","name":"getPendingVibes","inputs":[{"name":"user","type":"address","internalType":"address"}],"outputs":[{"name":"","type":"uint256","internalType":"uint256"}],"stateMutability":"view"},{"type":"function","name":"getSession","inputs":[{"name":"sessionId","type":"uint256","internalType":"uint256"}],"outputs":[{"name":"","type":"tuple","internalType":"struct Zone420.Session420","components":[{"name":"id","type":"uint256","internalType":"uint256"},{"name":"startTime","type":"uint256","internalType":"uint256"},{"name":"endTime","type":"uint256","internalType":"uint256"},{"name":"participantCount","type":"uint256","internalType":"uint256"},{"name":"totalVibesDistributed","type":"uint256","internalType":"uint256"},{"name":"isActive","type":"bool","internalType":"bool"}]}],"stateMutability":"view"},{"type":"function","name":"is420Active","inputs":[],"outputs":[{"name":"","type":"bool","internalType":"bool"}],"stateMutability":"view"},{"type":"function","name":"is420Time","inputs":[],"outputs":[{"name":"","type":"bool","internalType":"bool"}],"stateMutability":"view"},{"type":"function","name":"isInZone","inputs":[{"name":"user","type":"address","internalType":"address"}],"outputs":[{"name":"","type":"bool","internalType":"bool"}],"stateMutability":"view"},{"type":"function","name":"joinZone","inputs":[],"outputs":[],"stateMutability":"nonpayable"},{"type":"function","name":"last420Event","inputs":[],"outputs":[{"name":"","type":"uint256","internalType":"uint256"}],"stateMutability":"view"},{"type":"function","name":"lastMoodUpdate","inputs":[],"outputs":[{"name":"","type":"uint256","internalType":"uint256"}],"stateMutability":"view"},{"type":"function","name":"leaveZone","inputs":[],"outputs":[],"stateMutability":"nonpayable"},{"type":"function","name":"moodVotes","inputs":[{"name":"","type":"uint8","internalType":"enum Zone420.Mood"}],"outputs":[{"name":"","type":"uint256","internalType":"uint256"}],"stateMutability":"view"},{"type":"function","name":"owner","inputs":[],"outputs":[{"name":"","type":"address","internalType":"address"}],"stateMutability":"view"},{"type":"function","name":"participantIndex","inputs":[{"name":"","type":"address","internalType":"address"}],"outputs":[{"name":"","type":"uint256","internalType":"uint256"}],"stateMutability":"view"},{"type":"function","name":"participants","inputs":[{"name":"","type":"address","internalType":"address"}],"outputs":[{"name":"user","type":"address","internalType":"address"},{"name":"joinTime","type":"uint256","internalType":"uint256"},{"name":"lastVibesEarned","type":"uint256","internalType":"uint256"},{"name":"totalVibesEarned","type":"uint256","internalType":"uint256"},{"name":"currentMood","type":"uint8","internalType":"enum Zone420.Mood"},{"name":"sessionCount","type":"uint256","internalType":"uint256"}],"stateMutability":"view"},{"type":"function","name":"renounceOwnership","inputs":[],"outputs":[],"stateMutability":"nonpayable"},{"type":"function","name":"sessions","inputs":[{"name":"","type":"uint256","internalType":"uint256"}],"outputs":[{"name":"id","type":"uint256","internalType":"uint256"},{"name":"startTime","type":"uint256","internalType":"uint256"},{"name":"endTime","type":"uint256","internalType":"uint256"},{"name":"participantCount","type":"uint256","internalType":"uint256"},{"name":"totalVibesDistributed","type":"uint256","internalType":"uint256"},{"name":"isActive","type":"bool","internalType":"bool"}],"stateMutability":"view"},{"type":"function","name":"setEventMultiplier","inputs":[{"name":"newMultiplier","type":"uint256","internalType":"uint256"}],"outputs":[],"stateMutability":"nonpayable"},{"type":"function","name":"setMood","inputs":[{"name":"newMood","type":"uint8","internalType":"enum Zone420.Mood"}],"outputs":[],"stateMutability":"nonpayable"},{"type":"function","name":"setTreasury","inputs":[{"name":"newTreasury","type":"address","internalType":"address"}],"outputs":[],"stateMutability":"nonpayable"},{"type":"function","name":"setVibesPerMinute","inputs":[{"name":"newRate","type":"uint256","internalType":"uint256"}],"outputs":[],"stateMutability":"nonpayable"},{"type":"function","name":"total420Events","inputs":[],"outputs":[{"name":"","type":"uint256","internalType":"uint256"}],"stateMutability":"view"},{"type":"function","name":"totalParticipants","inputs":[],"outputs":[{"name":"","type":"uint256","internalType":"uint256"}],"stateMutability":"view"},{"type":"function","name":"totalVibesDistributed","inputs":[],"outputs":[{"name":"","type":"uint256","internalType":"uint256"}],"stateMutability":"view"},{"type":"function","name":"transferOwnership","inputs":[{"name":"newOwner","type":"address","internalType":"address"}],"outputs":[],"stateMutability":"nonpayable"},{"type":"function","name":"treasury","inputs":[],"outputs":[{"name":"","type":"address","internalType":"address"}],"stateMutability":"view"},{"type":"function","name":"trigger420Event","inputs":[],"outputs":[],"stateMutability":"nonpayable"},{"type":"function","name":"vibesPerMinute","inputs":[],"outputs":[{"name":"","type":"uint256","internalType":"uint256"}],"stateMutability":"view"},{"type":"function","name":"vibesToken","inputs":[],"outputs":[{"name":"","type":"address","internalType":"contract IERC20"}],"stateMutability":"view"},{"type":"event","name":"CommunityMoodUpdated","inputs":[{"name":"newMood","type":"uint8","indexed":false,"internalType":"enum Zone420.Mood"},{"name":"totalVotes","type":"uint256","indexed":false,"internalType":"uint256"}],"anonymous":false},{"type":"event","name":"Event420Ended","inputs":[{"name":"sessionId","type":"uint256","indexed":true,"internalType":"uint256"},{"name":"totalVibes","type":"uint256","indexed":false,"internalType":"uint256"},{"name":"participants","type":"uint256","indexed":false,"internalType":"uint256"}],"anonymous":false},{"type":"event","name":"Event420Started","inputs":[{"name":"sessionId","type":"uint256","indexed":true,"internalType":"uint256"},{"name":"timestamp","type":"uint256","indexed":false,"internalType":"uint256"}],"anonymous":false},{"type":"event","name":"JoinedZone420","inputs":[{"name":"user","type":"address","indexed":true,"internalType":"address"},{"name":"timestamp","type":"uint256","indexed":false,"internalType":"uint256"}],"anonymous":false},{"type":"event","name":"LeftZone420","inputs":[{"name":"user","type":"address","indexed":true,"internalType":"address"},{"name":"vibesEarned","type":"uint256","indexed":false,"internalType":"uint256"},{"name":"duration","type":"uint256","indexed":false,"internalType":"uint256"}],"anonymous":false},{"type":"event","name":"MoodChanged","inputs":[{"name":"user","type":"address","indexed":true,"internalType":"address"},{"name":"newMood","type":"uint8","indexed":false,"internalType":"enum Zone420.Mood"}],"anonymous":false},{"type":"event","name":"OwnershipTransferred","inputs":[{"name":"previousOwner","type":"address","indexed":true,"internalType":"address"},{"name":"newOwner","type":"address","indexed":true,"internalType":"address"}],"anonymous":false},{"type":"event","name":"Session420Created","inputs":[{"name":"sessionId","type":"uint256","indexed":true,"internalType":"uint256"},{"name":"startTime","type":"uint256","indexed":false,"internalType":"uint256"}],"anonymous":false},{"type":"event","name":"VibesEarned","inputs":[{"name":"user","type":"address","indexed":true,"internalType":"address"},{"name":"amount","type":"uint256","indexed":false,"internalType":"uint256"},{"name":"is420Bonus","type":"bool","indexed":false,"internalType":"bool"}],"anonymous":false},{"type":"error","name":"OwnableInvalidOwner","inputs":[{"name":"owner","type":"address","internalType":"address"}]},{"type":"error","name":"OwnableUnauthorizedAccount","inputs":[{"name":"account","type":"address","internalType":"address"}]},{"type":"error","name":"ReentrancyGuardReentrantCall","inputs":[]}],"bytecode":{"object":"0x60a034620001c45762001c5c90601f38839003908101601f19168201906001600160401b03821183831017620001c85780839160409586948552833981010312620001c4576200005d60206200005583620001dc565b9201620001dc565b903315620001ad575f549160018060a01b03908160018060a01b03199333858716175f55865195823391167f8be0079c531659141344cd1fd0a4f28419497f9722a3daafe3b4186f6b6457e05f80a360017f9b779b17422d0df92223018b32b4d1fa46e071723d6817e2486d003becc55f0055678ac7230489e800006002556002600355169384156200016b5750169182156200012757608052600154161760015560ff19600a5416600a5551611a6a9081620001f28239608051818181610f0301526117f70152f35b835162461bcd60e51b815260206004820152601960248201527f5a6f6e653432303a20696e76616c6964207472656173757279000000000000006044820152606490fd5b62461bcd60e51b815260206004820152601660248201527f5a6f6e653432303a20696e76616c696420746f6b656e000000000000000000006044820152606490fd5b8251631e4fbdf760e01b81525f6004820152602490fd5b5f80fd5b634e487b7160e01b5f52604160045260245ffd5b51906001600160a01b0382168203620001c45756fe6080604090808252600480361015610015575f80fd5b5f3560e01c918263083b9137146113175750816309e69ede146112985781630c8d6d511461119f57816318aa79901461116e57816320a605431461112e578163252ce701146110f05781632bdf34b5146110d25781632c32ebd214610f325781633321404514610eef578163402ff0db14610e4d57816348b9eeae14610e3257816355b7923e14610c8b5781635900b56814610c635781635bed3b5d14610c4557816361d027b314610c1d578163657a961b14610bff5781636597a13014610be15781637143059f14610b05578163715018a614610aae5781637a7cfdbc146108c8578163829d6da71461085b57816383c4b7a3146107f85781638da5cb5b146107d15781638dd47dba1461074e578163955252b014610629578163970cea77146105f25781639cb6d7da14610579578163a26dbf261461055b578163aea401b91461053f578163ba31a19c14610521578163c751b20714610503578163d26ddf71146104e0578163d99a621e146104c2578163da2b0d1914610416578163eace6f5914610329578163f0f442601461029c578163f2fde38b1461020d578163f362a09c146101ee575063f8b983c7146101cd575f80fd5b346101ea575f3660031901126101ea576020906005549051908152f35b5f80fd5b346101ea5760203660031901126101ea576102076119e9565b35600255005b82346101ea5760203660031901126101ea576001600160a01b038235818116939192908490036101ea5761023f6119e9565b83156102865750505f54826bffffffffffffffffffffffff60a01b8216175f55167f8be0079c531659141344cd1fd0a4f28419497f9722a3daafe3b4186f6b6457e05f80a3005b905f6024925191631e4fbdf760e01b8352820152fd5b9050346101ea5760203660031901126101ea5780356001600160a01b03811692908390036101ea576102cc6119e9565b82156102e657600180546001600160a01b03191684179055005b906020606492519162461bcd60e51b8352820152601960248201527f5a6f6e653432303a20696e76616c6964207472656173757279000000000000006044820152fd5b9050346101ea575f3660031901126101ea57815167ffffffffffffffff919060a081018381118282101761040357845260a09036903782519160a08301908111838210176103f057839293525f805260209160098352805f2054845260019160015f5260098452815f20548486015260025f5260098452815f20548286015260035f5260098452815f205460608601525f5260098352805f2054608085015251918293905f945b600586106103dd5760a085f35b82518152948301949181019181016103d0565b604182634e487b7160e01b5f525260245ffd5b604183634e487b7160e01b5f525260245ffd5b82346101ea575f3660031901126101ea5761042f611729565b335f5281602052805f2091610449600184015415156113cf565b6104523361176b565b91821561047f578361046484336117d2565b60024291015560015f80516020611a15833981519152555f80f35b906020606492519162461bcd60e51b8352820152601a60248201527f5a6f6e653432303a206e6f20766962657320746f20636c61696d0000000000006044820152fd5b82346101ea575f3660031901126101ea57602090600c549051908152f35b82346101ea575f3660031901126101ea5760209060ff600d541690519015158152f35b82346101ea575f3660031901126101ea576020906010549051908152f35b82346101ea575f3660031901126101ea576020906002549051908152f35b82346101ea575f3660031901126101ea57602090516110688152f35b82346101ea575f3660031901126101ea57602090600e549051908152f35b82346101ea575f3660031901126101ea5760ff600d541690816105a3575b60209250519015158152f35b9050600c5460f08101908181116105df57610104018091116105cc576020925042111590610597565b601183634e487b7160e01b5f525260245ffd5b601184634e487b7160e01b5f525260245ffd5b9050346101ea5760203660031901126101ea5735906001600160a01b03821682036101ea5761062260209261176b565b9051908152f35b82346101ea575f3660031901126101ea5760ff600d54161561070b57600c5460f08101908181116105df57610104018091116105cc5742106106c8577f7badfd6adf4601805a203cbfd0a3b12782d940de381bff3e7d049ee79279c63e906007545f526008602052805f204260028201556005810160ff1990818154169055600d5416600d5560036007549482015491015482519182526020820152a2005b906020606492519162461bcd60e51b8352820152601b60248201527f5a6f6e653432303a206576656e74206e6f742066696e697368656400000000006044820152fd5b906020606492519162461bcd60e51b8352820152601860248201527f5a6f6e653432303a206e6f20616374697665206576656e7400000000000000006044820152fd5b9050346101ea5760203660031901126101ea5780359161076c6119e9565b6001831015806107c6575b15610783576003839055005b906020606492519162461bcd60e51b8352820152601b60248201527f5a6f6e653432303a20696e76616c6964206d756c7469706c69657200000000006044820152fd5b50600a831115610777565b82346101ea575f3660031901126101ea575f5490516001600160a01b039091168152602090f35b9050346101ea5760203660031901126101ea5760c09181355f526008602052805f2080549260018201549260028301549060ff600560038601549486015495015416948151968752602087015285015260608401526080830152151560a0820152f35b9050346101ea57816003193601126101ea5761087b906024359035611500565b908051918291602090602080850191818652845180935285019301915f5b8281106108a857505050500390f35b83516001600160a01b031685528695509381019392810192600101610899565b82346101ea575f3660031901126101ea576108e1611729565b335f5260209082825260019283825f200154610a6d57335f5280835260059081835f200154858101809111610a5a5783519061091c82611459565b33825285820142815285830142815260608401905f825260808501925f845260a08601948552335f52868a52885f209560018060a01b039051166bffffffffffffffffffffffff60a01b875416178655518a8601555160028501555160038401555184811015610a4757906109948592858501611434565b519101558154335f526006855280845f2055680100000000000000008110156103f057918591610a0b6109ed85857f7911eb09d55b76f893f91f25b3177dc5963b99ba89f23e0d7edd27a5a3f0fc8d9897018555611386565b81546001600160a01b0360039290921b91821b19163390911b179055565b335f528552825f20015414610a34575b51914283523392a25f80516020611a1583398151915255005b610a3f600e54611412565b600e55610a1b565b602184634e487b7160e01b5f525260245ffd5b601182634e487b7160e01b5f525260245ffd5b82606492519162461bcd60e51b8352820152601860248201527f5a6f6e653432303a20616c726561647920696e207a6f6e6500000000000000006044820152fd5b346101ea575f3660031901126101ea57610ac66119e9565b5f80546001600160a01b0319811682556001600160a01b03167f8be0079c531659141344cd1fd0a4f28419497f9722a3daafe3b4186f6b6457e08280a3005b82346101ea5760203660031901126101ea576001600160a01b038235818116908190036101ea57610b346114ab565b505f5282602052815f20825192610b4a84611459565b8282541684526001820154602085019081526002830154908286019182526003840154936060870194855260ff888201541660808801986005821015610bce575088526005015460a087019081528351965190951686525160208601525190840152516060830152915160c09290610bc690608084019061134e565b5160a0820152f35b602190634e487b7160e01b5f525260245ffd5b82346101ea575f3660031901126101ea576020906007549051908152f35b82346101ea575f3660031901126101ea57602090600b549051908152f35b82346101ea575f3660031901126101ea5760015490516001600160a01b039091168152602090f35b82346101ea575f3660031901126101ea57602090600f549051908152f35b82346101ea575f3660031901126101ea57602090610c8960ff600a54169151809261134e565bf35b82346101ea575f3660031901126101ea57610ca4611729565b335f52602090828252805f206001810192610cc1845415156113cf565b610cdb610ccd3361176b565b9485610e23575b54426114db565b91335f5260068252835f2054600554905f1991828101908111610e1057808203610db9575b50506005548015610da657966005917f56d0e131bda1df2b3ec35b52ab904418796801023ceae575ca4195ef91edf0fa979801610d3c81611386565b81549060018060a01b039060031b1b191690558255335f52600684525f86812055816003840154930154928185525f878120928184558160018501558160028501558301556003820155015582519485528401523392a260015f80516020611a1583398151915255005b603188634e487b7160e01b5f525260245ffd5b610dc290611386565b905460039190911b1c6001600160a01b0316610dff81610de184611386565b90919060018060a01b038084549260031b9316831b921b1916179055565b5f5260068452855f20558780610d00565b601189634e487b7160e01b5f525260245ffd5b610e2d86336117d2565b610cd4565b82346101ea575f3660031901126101ea5760209051603c8152f35b82346101ea5760203660031901126101ea5760c091610e6a6114ab565b5080355f526008602052815f20825191610e8383611459565b81549384845260018301546020850190815260028401549082860191825260a060ff600560038801549660608a019788528801549760808a01988952015416960195151586528251968752516020870152519085015251606084015251608083015251151560a0820152f35b82346101ea575f3660031901126101ea57517f00000000000000000000000000000000000000000000000000000000000000006001600160a01b03168152602090f35b9050346101ea575f3660031901126101ea57600d5460ff811661108f57600c5461546081018091116105cc57421061105857600160ff1980921617600d5542600c5560ff6005610f83600754611412565b9384600755610f93601054611412565b601055815490865191610fa583611459565b86835260208301904282528884015f81526060850191825260808501925f845260a086019960018b525f5260086020528a5f2095518655516001860155516002850155516003840155519082015501925115159183541691161790557f7cff623e344d9c013d55e403f028ffa2bf37d5dd4ff18c05df48bd56f9017bb1602060075492837f213a639a1987a665a102d74d1dc9cf91b05df602df5ccf93ea88ec2086677f3c838351428152a251428152a2005b506020606492519162461bcd60e51b835282015260116024820152702d37b7329a19181d103a37b79039b7b7b760791b6044820152fd5b506020606492519162461bcd60e51b8352820152601d60248201527f5a6f6e653432303a206576656e7420616c7265616479206163746976650000006044820152fd5b82346101ea575f3660031901126101ea576020906003549051908152f35b82346101ea5760203660031901126101ea5781356001600160a01b03811692908390036101ea576020925f5282526001815f20015415159051908152f35b9050346101ea5760203660031901126101ea5735906005548210156101ea57611158602092611386565b905491519160018060a01b039160031b1c168152f35b9050346101ea5760203660031901126101ea57359060058210156101ea5761119760209261136f565b549051908152f35b82346101ea5760203660031901126101ea5781359160058310156101ea57335f528060205280825f206111d7600182015415156113cf565b0160ff815416916005831015610bce578483036111f057005b826111fb869461136f565b5461125e575b5050816112269161121561122e959461136f565b61121f8154611412565b9055611434565b51809261134e565b7f79bcd591eeb2e7738e23d3452ba19b21e90d542a628ceeaab9c0c19e10a23aa260203392a261125c6115f0565b005b61126a9192935061136f565b90815490811561128557505f19019055829081611226611201565b601190634e487b7160e01b5f525260245ffd5b9050346101ea5760203660031901126101ea576001600160a01b03918135838116908190036101ea5760c093611310915f5283602052825f209081541693600182015493600283015490600560ff6003860154948601541694015495815197885260208801528601526060850152608084019061134e565b60a0820152f35b9150346101ea5760203660031901126101ea57356001600160a01b03811692908390036101ea576020925f52600683525f20548152f35b90600582101561135b5752565b634e487b7160e01b5f52602160045260245ffd5b600581101561135b575f52600960205260405f2090565b6005548110156113bb5760055f527f036b6384b5eca791c62761152d0c79bb0604c104a5fb6f4eb0703f3154bb3db001905f90565b634e487b7160e01b5f52603260045260245ffd5b156113d657565b60405162461bcd60e51b81526020600482015260146024820152735a6f6e653432303a206e6f7420696e207a6f6e6560601b6044820152606490fd5b5f1981146114205760010190565b634e487b7160e01b5f52601160045260245ffd5b90600581101561135b5760ff80198354169116179055565b9190820180921161142057565b60c0810190811067ffffffffffffffff82111761147557604052565b634e487b7160e01b5f52604160045260245ffd5b90601f8019910116810190811067ffffffffffffffff82111761147557604052565b604051906114b882611459565b5f60a0838281528260208201528260408201528260608201528260808201520152565b9190820391821161142057565b67ffffffffffffffff81116114755760051b60200190565b60058054808410156115b457808491611519858461144c565b116115a1575b505061152a826114e8565b926115386040519485611489565b828452611544836114e8565b60209190601f190136868401375f5b84811061156257505050505090565b61157461156f828461144c565b611386565b9190549187518210156113bb5760031b9190911c6001600160a01b031681851b8701840152600101611553565b6115ac9293506114db565b90825f61151f565b505050506040516020810181811067ffffffffffffffff821117611475576040525f81525f36813790565b60ff1660ff81146114205760010190565b600b5461012c8101809111611420574210611727575f905f905f5b60ff8116600480821161165b576005821015610bce57508361162c8261136f565b5411611642575b5061163d906115df565b61160b565b9250925061163d6116528361136f565b54929390611633565b505050919050600a5460ff9060ff811692600593600581101561135b57600582101561135b57810361168e575b50505050565b60ff909492939416809160ff191617600a5542600b555f935f945b84861660048082116116e15783821015610bce57506116db916116ce6116d59261136f565b549061144c565b956115df565b946116a9565b5050905060409294507ed30974bc61b97e808e88b5ac08d3ebfba829fd4aae8ed9b7cbac8538119e5c93506117188351809361134e565b6020820152a15f808080611688565b565b5f80516020611a1583398151915260028154146117465760029055565b604051633ee5aeb560e01b8152600490fd5b8181029291811591840414171561142057565b6001600160a01b03165f9081526004602052604090206001810154156117cd576002611799910154426114db565b603c81106117cd576117b190603c6002549104611758565b60ff600d54166117be5790565b6003546117ca91611758565b90565b505f90565b600154604080516370a0823160e01b81526001600160a01b03928316600482018190527f000000000000000000000000000000000000000000000000000000000000000084169592949293602093909284816024818b5afa9081156119df575f916119b2575b508581106119aa575b5084611851575b50505050505050565b606484925f885195869485936323b872dd60e01b8552600485015216998a60248401528860448401525af19081156119a0575f9161196a575b501561192757907fbd81128e4866c17bb9422bad07f78759f97fa47975fa64e6bbc3ce69b5b1bcc09291845f52600481526003835f20016118cc83825461144c565b90556118da82600f5461144c565b600f5560ff600d5416611906575b60ff600d54168351928352151590820152a25f808080808080611848565b6007545f52600881526004835f200161192083825461144c565b90556118e8565b60649083519062461bcd60e51b82526004820152601860248201527f5a6f6e653432303a207472616e73666572206661696c656400000000000000006044820152fd5b90508181813d8311611999575b6119818183611489565b810103126101ea575180151581036101ea575f61188a565b503d611977565b84513d5f823e3d90fd5b94505f611841565b90508481813d83116119d8575b6119c98183611489565b810103126101ea57515f611838565b503d6119bf565b87513d5f823e3d90fd5b5f546001600160a01b031633036119fc57565b60405163118cdaa760e01b8152336004820152602490fdfe9b779b17422d0df92223018b32b4d1fa46e071723d6817e2486d003becc55f00a26469706673582212202e92cfe6ffb2b16ec48bacb0d46f65c899696ff3079fba1159a93f11604089ff64736f6c63430008180033","linkReferences":{}},"methodIdentifiers":{"FREQUENCY_420()":"aea401b9","MIN_EARN_TIME()":"48b9eeae","activeParticipants(uint256)":"20a60543","claimVibes()":"da2b0d19","communityMood()":"5900b568","currentSessionId()":"6597a130","end420Event()":"955252b0","eventMultiplier()":"2bdf34b5","getActiveParticipantCount()":"f8b983c7","getActiveParticipants(uint256,uint256)":"829d6da7","getMoodDistribution()":"eace6f59","getParticipant(address)":"7143059f","getPendingVibes(address)":"970cea77","getSession(uint256)":"402ff0db","is420Active()":"d26ddf71","is420Time()":"9cb6d7da","isInZone(address)":"252ce701","joinZone()":"7a7cfdbc","last420Event()":"d99a621e","lastMoodUpdate()":"657a961b","leaveZone()":"55b7923e","moodVotes(uint8)":"18aa7990","owner()":"8da5cb5b","participantIndex(address)":"083b9137","participants(address)":"09e69ede","renounceOwnership()":"715018a6","sessions(uint256)":"83c4b7a3","setEventMultiplier(uint256)":"8dd47dba","setMood(uint8)":"0c8d6d51","setTreasury(address)":"f0f44260","setVibesPerMinute(uint256)":"f362a09c","total420Events()":"c751b207","totalParticipants()":"a26dbf26","totalVibesDistributed()":"5bed3b5d","transferOwnership(address)":"f2fde38b","treasury()":"61d027b3","trigger420Event()":"2c32ebd2","vibesPerMinute()":"ba31a19c","vibesToken()":"33214045"},"id":80}